:020000040800F2
:10000000E8080524AD02000819D1000831C5000830
:1000100011D10008E91B000849F5000800000000A4
:1000200000000000000000000000000061D6000891
:10003000912600080000000091D1000801D70008B7
:10004000CB020008CB020008CB020008CB0200085C
:10005000CB020008CB020008CB020008CB0200084C
:10006000CB020008CB020008CB020008CB0200083C
:10007000F11B0008CB020008CB020008CB020008ED
:10008000CB020008CB020008CB020008CB0200081C
:10009000CB020008CB020008CB020008CB0200080C
:1000A000CB020008CB020008CB020008CB020008FC
:1000B000CB020008CB020008CB020008CB020008EC
:1000C000CB020008CB020008CB020008CB020008DC
:1000D000CB020008CB020008CB02000891F2000816
:1000E000CB020008CB02000800000000CB02000891
:1000F000CB020008CB020008CB020008CB020008AC
:10010000CB020008CB020008CB020008CB0200089B
:10011000CB020008CB020008CB020008CB0200088B
:10012000011C0008CB020008CB020008CB0200082B
:10013000CB020008CB020008CB020008CB0200086B
:1001400000000000000000000000000000000000AF
:10015000CB020008CB020008CB020008CB0200084B
:10016000CB020008CB020008CB020008CB0200083B
:10017000CB020008CB020008CB0200080000000000
:10018000CB020008CB020008CB020008CB0200081B
:10019000CB020008CB020008CB020008CB0200080B
:1001A000CB020008CB020008CB020008CB020008FB
:1001B000CB020008CB020008CB020008CB020008EB
:1001C000CB020008CB020008CB020008CB020008DB
:1001D000CB020008CB020008CB020008CB020008CB
:1001E000CB020008CB020008CB020008CB020008BB
:1001F000CB020008CB020008CB020008CB020008AB
:10020000CB020008CB020008CB020008CB0200089A
:10021000CB020008CB020008CB020008CB0200088A
:10022000CB020008CB020008CB020008000000004F
:10023000CB020008CB02000800000000CB0200083F
:10024000CB020008CB020008CB020008CB0200085A
:10025000CB020008CB020008CB020008CB0200084A
:10026000CB020008CB020008CB020008CB0200083A
:10027000CB020008CB020008CB02000800000000FF
:10028000CB020008CB020008CB02000800000000EF
:1002900000000000CB020008DFF80CD000F03CFFAB
:1002A00000480047F10B0108E8080524074880478B
:1002B0000748804707480047FEE7FEE7FEE7FEE7FE
:1002C000FEE7FEE7FEE7FEE7FEE7FEE7C1260008E1
:1002D000F1D70008990200082DE9FF4FABB00546A1
:1002E0002C9C00262194E40806EB040909EB040089
:1002F000039020440290204400EB040805EBC0006A
:10030000139008EB040739190A9105EBC60B006836
:1003100008900146DBF800A0504600F04EFC08991A
:100320000190504600F09BFC05EBC80A099005EBD4
:10033000C900DAF800801590D0F800904146484690
:1003400000F03BFC41460590484600F088FC05EB78
:10035000C7090890D9F8000004900398049905EBA8
:10036000C008D8F80070384600F027FC04991190B6
:10037000384600F074FC0A990E9005EBC100189005
:10038000006803900298039905EBC0073868049051
:1003900000F013FC0290DDE9031000F060FC109007
:1003A0001199019800F05BFC04901199019800F0FC
:1003B00004FC01900299059800F051FC11900299FB
:1003C000059800F0FAFB05900146019800F0F5FB56
:1003D000CBF800000599019800F041FC0146139804
:1003E0000160139840680390DBF8040003990290C1
:1003F00000F0E3FB0190DDE9020100F030FC069023
:10040000DAF804000390159803994068029000F010
:10041000D4FB0590DDE9020100F021FC0790D9F83A
:1004200004000390D8F804000399029000F0C5FB83
:100430000B90DDE9020100F012FC0D901898406865
:100440000A9078680A99039000F0B7FB02900A9925
:10045000039800F004FC0C900B99019800F0FFFB4E
:1004600003900B99019800F0A8FB01900299059860
:1004700000F0F5FB0B900299059800F09EFB0590AB
:100480000146019800F099FBCBF80400059901980A
:1004900000F0E5FB0146139841600B99049800F0C9
:1004A0008CFBC8F800000B99049800F0D8FBC9F841
:1004B00000001199039800F0D2FBC8F804001199CC
:1004C000039800F07AFBC9F804001099089800F02E
:1004D000C6FBDFF85486414600F0C7FB1099814601
:1004E000089800F06AFB414600F0BFFB0C99834678
:1004F000079800F0B4FB414600F0B7FB05900C995B
:10050000079800F05AFB414600F0AFFB07904946C0
:10051000099800F0A4FB04904946099800F04DFBAF
:10052000099059460E9800F09AFB109059460E9883
:1005300000F043FB0E90DDE9051000F090FB039006
:10054000DDE9051000F039FB069007990D9800F0E1
:1005500086FB079983460D9800F02FFB81460146E4
:10056000099800F02AFB0146159801604946099850
:1005700000F075FB0146189801605946049800F098
:100580001CFBCAF800005946049800F068FB38606C
:100590000E99069800F063FB0146159841600E998C
:1005A000069800F00AFB01461898416010990398DC
:1005B00000F055FBCAF804001099039800F0FDFA0A
:1005C000219978602C980E448642FFF48DAE082C59
:1005D0003CBF2FB0BDE8F08F002018900120209084
:1005E0002E9918982D9B08442D99189001EBC00C5A
:1005F0002D9F4200209E1118DCF8008003EBC203FF
:10060000CDF854800A18DDF8B48007EBC107111843
:1006100008EBC2081A6814920A18D7F80090104420
:10062000CDF85C90DDF8B49009EBC101D8F80090EA
:10063000CDF85890DDF8B490DCF804C009EBC202A4
:10064000CDF870C0D1F800C009EBC000CDF864C08F
:10065000D2F800C0CDF88CC0D0F800C0CDF888C06A
:100660005B6812937B681A93D8F804301393496837
:100670001B9151681D914068CDF8780006EB040885
:1006800008EB0400039020440290204400EB04098E
:1006900005EBC000249009EB040739190A91D0F842
:1006A00000A005EBC6001F905146D0F800B0584698
:1006B00000F083FA51460190584600F0D0FA05EB5D
:1006C000C80B099005EBC9002590DBF80080D0F835
:1006D00000904046494600F070FA49460590404671
:1006E00000F0BDFA089005EBC70A0398DAF800702D
:1006F00005EBC0093946D9F80080404600F05DFAA4
:1007000039461190404600F0AAFA0A990E9005EB7E
:10071000C108D8F8000003900298039905EBC007C0
:100720003868049000F049FA0290DDE9031000F007
:1007300096FA10901199019800F091FA049011998D
:10074000019800F03AFA01900299059800F087FAB2
:1007500011900299059800F030FA05900146019831
:1007600000F02BFA01461F9801600599019800F0EE
:1007700076FA05902498406803901F980399406882
:10078000019000F01AFA02900399019800F067FABC
:100790000690259840680390DBF8040003990190C7
:1007A00000F00BFA0A900399019800F058FA0790AC
:1007B000DAF804000390D9F804000399019000F0DE
:1007C000FCF90B900399019800F049FA0D90D8F8C4
:1007D00004000C9078680C99039000F0EEF90190F9
:1007E0000C99039800F03BFA0C900B99029800F0DA
:1007F00036FA03900B99029800F0DFF90290019904
:100800000A9800F02CFA0B9001990A9800F0D5F99B
:100810000A900B99049800F0D0F901900B99049874
:1008200000F01DFA04900A99029800F0C6F90146FA
:100830001F9841600A99029800F011FA0A901199E4
:10084000039800F00CFA02901199039800F0B5F9A2
:1008500003900599169800F008FA1F900A991398CA
:1008600000F003FA11900A99169800F0FEF90B9027
:100870000599139800F0F9F90A9011991F9800F062
:100880009CF9014624980160DDE90A1000F0E7F9BF
:100890000146249841600199149800F0E6F91F90F0
:1008A0000299129800F0E1F911900299149800F061
:1008B000DCF90B900199129800F0D7F90A90119980
:1008C0001F9800F07AF9C9F80000DDE90A1000F07D
:1008D000C6F9C9F804000499239800F0C6F91F90DE
:1008E00003991D9800F0C1F903998146239800F0FF
:1008F000BCF90B9004991D9800F0B7F90A9049468D
:100900001F9800F05AF9CAF80000DDE90A1000F05B
:10091000A6F9CAF804001099089800F0A0F98249D5
:1009200000F0A3F910998146089800F046F97E4935
:1009300000F09BF90C998246079800F090F97A49EB
:1009400000F093F902900C99079800F036F9764977
:1009500000F08BF907904946099800F080F904905F
:100960004946099800F029F9099051460E9800F07F
:1009700076F9109051460E9800F01FF90E900299EA
:10098000069800F06CF903900299069800F015F9AA
:10099000069007990D9800F062F9079982460D9824
:1009A00000F00BF981460146099800F006F9019024
:1009B0004946099800F053F909905146049800F00F
:1009C000FCF808905146049800F049F904900E99FB
:1009D000069800F044F90E998146069800F0EDF86B
:1009E00006901099039800F03AF90790109903982F
:1009F00000F0E3F803900199159800F036F91F9084
:100A000049461C9800F031F982461598494600F095
:100A10002CF90B9001991C9800F027F981461F983A
:100A2000514600F0CAF8CBF8000049460B9800F098
:100A300016F9CBF804000999229800F016F91F90D6
:100A400006991E9800F011F906998346229800F045
:100A50000CF9099982461E9800F007F981461F9803
:100A6000594600F0AAF84946C8F80000504600F080
:100A7000F6F8C8F804000899199800F0F6F80799F4
:100A800083461B9800F0F1F807998146199800F009
:100A9000ECF8089982461B9800F0E7F88046494632
:100AA000584600F08AF801462598016041465046B4
:100AB00000F0D5F80146259841600499179800F098
:100AC000D4F8039983461A9800F0CFF80399814629
:100AD000179800F0CAF8049982461A9800F0C5F8F1
:100AE00080464946584600F068F84146386050460E
:100AF00000F0B5F8219978602C980E448642FFF4F6
:100B0000BDAD2098401C209084423FF669AD2E98E0
:100B10004FF6FF71072C01EAC0002E903FF6E1ABC3
:100B20002FB0BDE8F08F0000F304353F2DE9F05FF2
:100B30000546002092469B4688460646814640244C
:100B40001BE0284641464746224600F0E5F853465A
:100B50005A46C01A914110D311461846224600F059
:100B6000CCF82D1A67EB01084F46224601200021E0
:100B700000F0C3F817EB00094E41201EA4F1010458
:100B8000DFDC484631462A464346BDE8F09F002850
:100B900000DA40427047D2B201E000F8012B491E52
:100BA000FBD270470022F6E710B513460A4604460A
:100BB0001946FFF7F0FF204610BDF0B480EA0102AD
:100BC000D40F4200B2EB410F02D202460846114652
:100BD0004A0042D0C30DDDB2C1F3C752AD1A202D79
:100BE00035DAC1F3160141F4000204B15242C5F1F5
:100BF000200602FA06F12A411044B3EBD05F23D05D
:100C0000C4B1012DA0EBC35009DCF0BC4FF0004291
:100C100002EAC352DBB200F5000000F096B84000D3
:100C200000F1807000EBC350A0F1807040EAD170F9
:100C3000490009E0490841EAC071A0EBC35000F542
:100C40000000400800EBC350F0BC00F075B86142F2
:100C5000012202EB4101001BF6E7F0BC704781F076
:100C60000041AAE780F00040A7E780EA010210B542
:100C700002F00043400022D04A001FD0010E01EBD9
:100C80001261C0F35600C2F3560240F4000042F471
:100C90000002A0FB022000047F39140400D0401C95
:100CA00050EA124001D44000491EC2B20C0604EBC7
:100CB000D010401C4008802A02D003E0002010BD64
:100CC00020F00100002900DA0020184310BD30B5E3
:100CD0000B46014600202022012409E021FA02F5FA
:100CE0009D4205D303FA02F5491B04FA02F5284494
:100CF000151EA2F10102F1DC30BD202A04DB203AEE
:100D000000FA02F1002070479140C2F1200320FA5E
:100D100003F3194390407047202A04DB203A21FA5C
:100D200002F00021704721FA02F3D040C2F1200204
:100D300091400843194670470029A8BF7047401CDE
:100D4000490008BF20F00100704710B4B0FA80FCE1
:100D500000FA0CF050EA010404BF10BC704749B11E
:100D6000CCF1200421FA04F411FA0CF118BF01218E
:100D700021430843A3EB0C01CB1D4FEA00614FEA6E
:100D8000102042BF002010BC704700EBC35010443D
:100D90000029A4BF10BC7047401C490008BF20F0C8
:100DA000010010BC70472DE9FE4F804681EA030028
:100DB000C00F0C46009021F0004123F00045B8EB35
:100DC0000200A94105D24046214690461C460B46EA
:100DD000024623F00040104347D0270DC7F30A0016
:100DE000C3F30A510290401A019040286BDAC3F312
:100DF000130040F4801B0098924620B10023D2EBF0
:100E0000030A63EB0B0B01985946C0F140025046B0
:100E1000FFF773FF06460D4650465946019A00F00B
:100E20008DF910EB08006141002487EA115284EA31
:100E3000E7731A4340D0009A62B3019A012A4FEA3D
:100E4000075215DC001B61EB02014FF0004202EA81
:100E50000752CDE90042001C41F5801132462B4675
:100E600000F08DF903B0BDE8F08F40462146F9E768
:100E7000001B61EB0201001C41F5801300185B416F
:100E80002018A2F5001747EB030140EAD570B61908
:100E90006D4111E06D084FEA360645EAC0754FEA2C
:100EA0000752001B61EB0201001C41F5801149084B
:100EB0004FEA30000019514132462B4603B0BDE8DD
:100EC000F04F00F04DB90098012240000023D0EB14
:100ED000020263EBE073009821464FEAE074B8EB3E
:100EE000000061EB0401E9E783F000435BE781F078
:100EF000004158E72DE9FE4F81EA030404F0004465
:100F000021F0004100944FF0000B23F0004350EA21
:100F100001045ED052EA03045BD0C3F30A54C1F368
:100F20000A552C44A4F2F3340194A0FB0254C1F3FB
:100F3000130141F48011C3F3130343F4801301FB45
:100F4000024400FB034E840A970A44EA815447EAAC
:100F50008357A4FB076802958D0A05FB07854FEAB6
:100F6000932C04FB0C542705029D4FEA065847EAD0
:100F70001637B5EB08056EEB070C870E920E47EAA5
:100F8000811742EA8312A7FB0201B6EB0B0164EB67
:100F900000042B0D43EA0C335E1844EB1C50DA4678
:100FA0005146E7FB0201C5F313044FEA0B3343EA52
:100FB00014534FEA0432019C43EA0603A4F10C04E3
:100FC0000294009CCDE900B400F0D9F803B0BDE86C
:100FD000F08F00200146F9E72DE9F04D81EA030486
:100FE00004F0004B21F0004514464FF0000A23F0B6
:100FF000004150EA050220D054EA01021DD0C5F399
:101000000A570246C5F31303C1F31300C1F30A568E
:1010100040F4801543F48013A7EB0608101BD64656
:1010200008F2FD3873EB050002D308F1010801E076
:1010300092185B41B8F1000F03DA00200146BDE8C9
:10104000F08D00204FF48011064684460EE0171BF9
:1010500073EB050705D3121B63EB050306434CEA4C
:10106000010C49084FEA300092185B4150EA010731
:10107000EDD152EA030012D082EA040083EA0501AE
:10108000084305D0101BAB4106D20122002306E025
:1010900000224FF0004302E06FF0010253101AEB00
:1010A00006004CEB085110EB0A0041EB0B01BDE8C8
:1010B000F04D00F055B8C1F30A52C1F3130140F2EC
:1010C000FF3341F480119A4202DA00200146704752
:1010D00040F233439A42A2F2334202DC5242FFF71B
:1010E0001BBEFFF70ABE000030B5041E71F10004FC
:1010F00004DB4FF00044404264EB0101141E73F125
:10110000000405DB1C464FF00043524263EB04032E
:10111000994208BF904230BD064C074D06E0E0689A
:1011200040F0010394E8070098471034AC42F6D32E
:10113000FFF7B6F8F892080828930808202A06DB7B
:10114000CB17203A41FA02F043EAE07306E041FA95
:1011500002F3D040C2F12002914008431946704783
:1011600010B5141E73F1000408DA401C41F10001AF
:1011700092185B411A4301D120F0010010BD2DE906
:10118000F04D92469B4611B1B1FA81F202E0B0FAFD
:1011900080F220329046FFF7B0FD04460F4640EA49
:1011A0000A0041EA0B0153465A46084313D0114640
:1011B00053EA010019D0C8F140025046FFF7ACFDD8
:1011C00005460E46504659464246FFF796FD0843EF
:1011D00005D0012004E020463946BDE8F08D00200E
:1011E000054346EAE0762C4337430A986305E40A50
:1011F000A0EB08000022FD0A44EA47540A3002D559
:1012000000200146E9E7010510196941DDE90845BB
:1012100000196941BDE8F04DA2E730B58C1810F80F
:10122000012B12F00F0301D110F8013B120906D176
:1012300010F8012B03E010F8015B01F8015B5B1E65
:10124000F9D101E001F8013B521EFBD1A142E6D3E6
:10125000002030BD0000000040F24401C2F2054110
:10126000012008707047000080B582B0019001989D
:10127000006840F22411C2F205410968884205D194
:10128000FFE700F031F8FFF7E7FFFFE702B080BDAE
:1012900080B584B00390029140F29C10C2F20540E8
:1012A000019009F095FF40F22410C2F20540009031
:1012B00002F03AFC009841F26921C0F60001C163D6
:1012C000039A029B40F61001C5F6020105F0D4F91D
:1012D00001980268D16841F48071D16000210AF060
:1012E000E3F904B080BD000080B5FFE740F29C1038
:1012F000C2F205400068006A41F21111084216D19D
:10130000FFE740F29C10C2F205400068006A40F21C
:10131000444108420AD1FFE740F29C10C2F2054066
:101320000168086820F001000860FFE7FFE7FFE7B9
:1013300040F29C10C2F205400168C86820F4807039
:10134000C86040F22410C2F2054002F0EDFB80BDFF
:1013500080B582B0ADF80600BDF80600C0F30520E8
:1013600040F21C01C2F205410870BDF80600487049
:101370000CF0DAFF02B080BD80B582B001909DED27
:10138000010AB8EE400B9FED0E1B20EE010BBCEEE8
:10139000C00B8DED000A009840F21C01C2F205411D
:1013A000C8710098000A8871BDF8020048719DF864
:1013B000030008710CF0B8FF02B080BD00BF00BF91
:1013C00095D626E80B2E114080B584B00390039883
:1013D000006842F20001C4F20201884209D0FFE72E
:1013E0000398006842F20011C4F20201884209D158
:1013F000FFE742F20830C4F20200006810F4403FF8
:1014000009D129E046F20830C5F60200006810F460
:10141000403F21D0FFE708F06FFD0290039840683D
:101420000190B0F5803F0AD0FFE70198B0F5003F8A
:1014300005D0FFE70198B0F5403F07D00AE00398D8
:10144000C1880298B0FBF1F0029004E00298800895
:10145000029000E0FFE75FE04FF40020002106F07B
:1014600087FC0290039840680090B0F5802F32D03E
:10147000FFE70098B0F5002F2DD0FFE70098B0F5FA
:10148000402F28D0FFE70098B0F5801F23D0FFE75A
:101490000098B0F5A01F1ED0FFE70098B0F5C01F60
:1014A00019D0FFE70098B0F5E01F1FD0FFE70098C4
:1014B000B0F5001F1ED0FFE70098B0F5101F1DD03B
:1014C000FFE70098B0F5201F1CD0FFE70098B0F5AB
:1014D000301F1BD01EE0039841686FF0010000EA46
:1014E00051410298B0FBF1F0029014E0029800091B
:1014F000029010E00298400902900CE002988009E6
:10150000029008E00298C009029004E00298000AE4
:10151000029000E0FFE7FFE705F06AFE41F20301F9
:10152000884217D8FFE7029842F60151C0F2311104
:10153000884207D3FFE703980168886840F4807009
:10154000886006E003980168886820F480708860ED
:10155000FFE743E0029840080290029845F61061C8
:10156000C0F25F01884209D8FFE7039800688068ED
:1015700020F440700399096888602EE002984BF6C9
:101580002041C0F2BE0188420AD8FFE703980068F4
:101590008068012161F309200399096888601BE0D4
:1015A000029847F64001C0F27D1188420AD8FFE751
:1015B000039800688068022161F309200399096893
:1015C000886008E003980068806840F440700399E0
:1015D00009688860FFE7FFE7FFE7FFE704B080BD29
:1015E00080B58AB008900791002005900798049074
:1015F000089800680BF06CF90290089800680BF0EE
:101600002FF90190029828B9FFE70198002800F00F
:10161000A880FFE708980068C0688001002836D5D8
:10162000FFE70898407D012831D1FFE70898007D49
:1016300001282CD1FFE701200490FFE708980068FB
:10164000006800F040010020B0EB911F1AD1FFE7C5
:1016500005984DF60041C0F20C0188420ED3FFE719
:101660000899486D40F0100048650899886D40F071
:101670000100886501208DF8270076E0059801308B
:101680000590DBE70898016840200860FFE70498B0
:10169000022813D0FFE7089800680BF019F960B131
:1016A000FFE7089800680BF0FBF828B9FFE70898F7
:1016B00000680BF061F9FFE7FFE7FFE704980128F6
:1016C00013D0FFE7089800680BF0CAF860B1FFE795
:1016D000089800680BF0E4F828B9FFE7089800685C
:1016E0000BF0C6F8FFE7FFE7FFE704980090022839
:1016F00007D0FFE70098032806D1FFE70C200390EE
:1017000005E00820039002E004200390FFE705F0C5
:1017100077FD0690FFE70898006880680399084203
:101720001ED0FFE705F06CFD0699401A062816D377
:10173000FFE7089800688068039908420ED0FFE729
:101740000899486D40F0100048650899886D40F090
:101750000100886501208DF8270006E0FFE7DAE741
:10176000FFE700208DF82700FFE79DF827000AB06B
:1017700080BD00000000000080B582B0019001989B
:10178000806B00900098406D10F0500F4AD1FFE739
:101790000099486D40F40070486500980068006842
:1017A0000007002821D5FFE7009800680BF098F8A3
:1017B000D0B1FFE700980068C0688004002812D408
:1017C000FFE70099486D20F4807048650098406DEF
:1017D000C004002806D4FFE70099486D40F00100DE
:1017E0004865FFE7FFE7FFE718E000980068C0687A
:1017F000800790B9FFE70099486D20F48070486534
:101800000098406DC004002806D4FFE70099486D99
:1018100040F001004865FFE7FFE7FFE7009801F0AF
:1018200097FD10E00098406DC006002804D5FFE742
:10183000009801F0A5FD05E00098C06CC16C01980E
:101840008847FFE7FFE702B080BD0000000000000E
:1018500080B582B001900198806B00900099486D2E
:1018600040F0400048650099886D40F004008865AC
:10187000009801F085FD02B080BD0000000000006E
:1018800080B582B001900198806B0090009801F0C3
:1018900073FD02B080BD000080B584B00290029854
:1018A00000680AF0FDFF0090029800680BF000F855
:1018B00000284BD0FFE70098002847D1FFE70298A7
:1018C0000068806800F00D00012809D1FFE7029848
:1018D00000680AF079FF02980168032008600DE0B3
:1018E0000299486D40F0100048650299886D40F0FB
:1018F0000100886501208DF80F002BE005F080FCC9
:101900000190FFE7029800688068C007E8B1FFE730
:1019100005F076FC0199401A032815D3FFE70298D9
:1019200000688068C00770B1FFE70299486D40F019
:10193000100048650299886D40F00100886501201B
:101940008DF80F0006E0FFE7DCE7FFE700208DF8E9
:101950000F00FFE79DF80F0004B080BD00000000FD
:1019600080B586B00490049800680AF0A1FF0028B2
:1019700040F09280FFE70498006880683F21C8F239
:10198000000108420ED0FFE70499486D40F01000B6
:1019900048650499886D40F00100886501208DF844
:1019A00017007DE0049800680AF02AFF05F028FC83
:1019B000039004980168012042F20002C4F202027E
:1019C000914201900CD0FFE7049800684DF6007139
:1019D000CBF6FD710844B0FA80F040090190FFE7B2
:1019E0000198C10746F20030C5F6020000291CBF6D
:1019F00042F20030C4F202000AF02AFF029004987A
:101A0000006842F20011C4F20201884206D1FFE7E9
:101A100042F20000C4F20200009003E00498006863
:101A20000090FFE7009804990968884203D0FFE717
:101A3000029880BBFFE7FFE7049800680068C007D2
:101A400040BBFFE7049800680AF032FF28B9FFE7BF
:101A5000049800680AF0D4FEFFE705F0D1FB039973
:101A6000401A032815D3FFE7049800680068C007F0
:101A700070B9FFE70499486D40F01000486504997B
:101A8000886D40F00100886501208DF8170007E09F
:101A9000FFE7D1E7FFE7FFE700208DF81700FFE73A
:101AA0009DF8170006B080BD80B58AB040F24400B2
:101AB000C2F20540007838B1FFE740F24500C2F2BB
:101AC0000540007808B9FFE78CE040F24401C2F21B
:101AD00005410020087040F24501C2F2054108703E
:101AE000FFF702FC40F24800C2F2054001F0ACFFF3
:101AF00040F20000C2F20040059044F20800049059
:101B00000498012820DBFFE70498059901F01F01E4
:101B10000844039005980290BFF34F8FFFE70298A7
:101B20004EF65C71CEF200010860029820300290FF
:101B300003982038039003980028F0DCFFE7BFF3F8
:101B40004F8FBFF36F8FFFE744F20800C2F20040EF
:101B500009904FF4804008900898012820DBFFE7A7
:101B60000898099901F01F01084407900998069008
:101B7000BFF34F8FFFE706984EF65C71CEF200017F
:101B8000086006982030069007982038079007983C
:101B90000028F0DCFFE7BFF34F8FBFF36F8FFFE745
:101BA00040F2C820C2F20540019000F09DFD01986E
:101BB0000BF05AFD01980DF073FB40F20000C2F2E9
:101BC000004042F20401FFF763FB40F24800C2F21A
:101BD000054044F20801C2F200414FF4005201F006
:101BE00043FEFFE70AB080BDFFE7FEE7000000000C
:101BF00080B540F22410C2F2054002F0A9FF80BD7A
:101C000080B540F2AC00C2F2054002F0A1FF80BDF9
:101C100083B002900298016801201022C4F20202EF
:101C20009142009000F0A380FFE702980168012034
:101C30002822C4F202029142009000F09880FFE74F
:101C40000298016801204022C4F2020291420090F1
:101C500000F08D80FFE70298016801205822C4F24D
:101C600002029142009000F08280FFE70298016832
:101C700001207022C4F202029142009077D0FFE767
:101C80000298016801208822C4F202029142009069
:101C90006DD0FFE7029801680120A022C4F2020281
:101CA0009142009063D0FFE7029801680120B822BA
:101CB000C4F202029142009059D0FFE702980168F5
:101CC000012040F21042C4F20202914200904ED034
:101CD000FFE702980168012040F22842C4F20202A4
:101CE0009142009043D0FFE702980168012040F242
:101CF0004042C4F202029142009038D0FFE70298BD
:101D00000168012040F25842C4F202029142009060
:101D10002DD0FFE702980168012040F27042C4F222
:101D200002029142009022D0FFE702980168012050
:101D300040F28842C4F202029142009017D0FFE7BD
:101D400002980168012040F2A042C4F202029142CE
:101D500000900CD0FFE7029800684FF64831CBF6B0
:101D6000FD710844B0FA80F040090090FFE7009848
:101D7000C00740B3FFE70298007810384AF6AB215D
:101D8000CAF6AA21A0FB011000090190019800F0F9
:101D9000070141F6F060C0F60100405C0299C86599
:101DA0000198042807D3FFE702990868042262F328
:101DB0000900886506E00299086840F2FF32904306
:101DC0008865FFE705E00299086820F0FF00886554
:101DD000FFE70298806D03B070470000000000002C
:101DE00084B0039003980068019003980168012073
:101DF00045F20842C5F60202914200904ED0FFE73C
:101E000003980168012045F21C42C5F60202914286
:101E1000009043D0FFE703980168012045F230426B
:101E2000C5F602029142009038D0FFE7039801689E
:101E3000012045F24442C5F60202914200902DD0A5
:101E4000FFE703980168012045F25842C5F60202F7
:101E50009142009022D0FFE703980168012045F2EB
:101E60006C42C5F602029142009017D0FFE703983A
:101E70000168012045F28042C5F6020291420090BD
:101E80000CD0FFE7039800684AF66C31CAF2FD7186
:101E90000844B0FA80F040090090FFE70098C007BE
:101EA00010B3FFE70398007808384CF6CD41CCF624
:101EB000CC41A0FB011000090290029945F60000F8
:101EC000C5F6020000EB810003990866039945F608
:101ED0008000C5F602004866029800F01F0101204C
:101EE00088400399886635E00398007810384AF6F0
:101EF000AB21CAF6AA21A0FB0110000902900198AB
:101F000040F2B841C4F2020188420CD8FFE70198C0
:101F100040F21041C4F20201884204D3FFE7029864
:101F200008300290FFE7029940F60000C4F2020078
:101F300000EB810003990866039940F68000C4F223
:101F400002004866029800F01F01012088400399B2
:101F50008866FFE704B0704783B00290029800796A
:101F600001900198002800F08A80FFE70198082876
:101F700000F28580FFE702980168012045F20842DF
:101F8000C5F60202914200904ED0FFE70298016828
:101F9000012045F21C42C5F602029142009043D056
:101FA000FFE702980168012045F23042C5F60202BF
:101FB0009142009038D0FFE702980168012045F275
:101FC0004442C5F60202914200902DD0FFE70298EC
:101FD0000168012045F25842C5F602029142009084
:101FE00022D0FFE702980168012045F26C42C5F655
:101FF00002029142009017D0FFE702980168012089
:1020000045F28042C5F60202914200900CD0FFE7F3
:10201000029800684AF66C31CAF2FD710844B0FAC1
:1020200080F040090090FFE70098C00780B1FFE70B
:10203000019945F6FC00C5F6020000EB810002990B
:10204000C866029945F64010C5F6020008670FE021
:10205000019940F6FC00C4F2020000EB81000299F5
:10206000C866029940F64010C4F202000867FFE714
:102070000198411E0120884002994867FFE703B09C
:10208000704700000000000085B0049000208DF82B
:102090000F000498806918BBFFE70498806A0290DB
:1020A00003281BD80299DFE801F0020D02180498FA
:1020B00090F82F00C00720B1FFE701208DF80F0036
:1020C000FFE70CE00498C06AB0F1C07F04D1FFE7DD
:1020D00001208DF80F00FFE701E000E0FFE747E097
:1020E00004988069B0F5005F26D1FFE70498806A04
:1020F000019003281ED80199DFE801F002060211C1
:1021000001208DF80F0016E0049890F82F00C0070A
:1021100020B1FFE701208DF80F00FFE70BE00498E6
:10212000C06AB0F1C07F04D1FFE701208DF80F0035
:10213000FFE700E0FFE71AE00498806A00900328B8
:1021400004D3FFE70098032804D00EE001208DF8A7
:102150000F000BE0049890F82F00C00720B1FFE7B4
:1021600001208DF80F00FFE700E0FFE7FFE7FFE742
:102170009DF80F0005B0704789B00890079106924E
:1021800005930898806D04900898806D03900898D6
:10219000016801201022C4F202029142029000F074
:1021A0000381FFE70898016801202822C4F2020297
:1021B0009142029000F0F880FFE708980168012042
:1021C0004022C4F202029142029000F0ED80FFE74B
:1021D0000898016801205822C4F20202914202903C
:1021E00000F0E280FFE70898016801207022C4F245
:1021F00002029142029000F0D780FFE70898016840
:1022000001208822C4F202029142029000F0CC80A8
:10221000FFE7089801680120A022C4F2020291425F
:10222000029000F0C180FFE7089801680120B82201
:10223000C4F202029142029000F0B680FFE70898D3
:102240000168012040F21042C4F202029142029061
:1022500000F0AA80FFE708980168012040F22842B8
:10226000C4F202029142029000F09E80FFE70898BB
:102270000168012040F24042C4F202029142029001
:1022800000F09280FFE708980168012040F2584270
:10229000C4F202029142029000F08680FFE70898A3
:1022A0000168012040F27042C4F2020291420290A1
:1022B0007AD0FFE708980168012040F28842C4F212
:1022C0000202914202906FD0FFE708980168012056
:1022D00040F2A042C4F202029142029064D0FFE7B1
:1022E00008980168012040F2B842C4F2020291420B
:1022F000029059D0FFE708980168012045F2084292
:10230000C5F60202914202904ED0FFE7089801689C
:10231000012045F21C42C5F602029142029043D0D0
:10232000FFE708980168012045F23042C5F6020235
:102330009142029038D0FFE708980168012045F2E9
:102340004442C5F60202914202902DD0FFE7089860
:102350000168012045F25842C5F6020291420290FE
:1023600022D0FFE708980168012045F26C42C5F6CB
:1023700002029142029017D0FFE7089801680120FD
:1023800045F28042C5F60202914202900CD0FFE76E
:10239000089800684AF66C31CAF2FD710844B0FA38
:1023A00080F040090290FFE70298C00770B1FFE794
:1023B0000898416E806E48600898C06E28B1FFE7AB
:1023C0000898016F406F4860FFE7FFE708980168D1
:1023D00001201022C4F202029142019000F0A38079
:1023E000FFE70898016801202822C4F20202914206
:1023F000019000F09880FFE70898016801204022D2
:10240000C4F202029142019000F08D80FFE708982B
:10241000016801205822C4F202029142019000F0AA
:102420008280FFE70898016801207022C4F202024E
:102430009142019077D0FFE7089801680120882237
:10244000C4F20202914201906DD0FFE70898016842
:102450000120A022C4F202029142019063D0FFE762
:10246000089801680120B822C4F20202914201904A
:1024700059D0FFE708980168012040F21042C4F2E9
:102480000202914201904ED0FFE7089801680120B6
:1024900040F22842C4F202029142019043D0FFE789
:1024A00008980168012040F24042C4F202029142C1
:1024B000019038D0FFE708980168012040F25842A7
:1024C000C4F20202914201902DD0FFE70898016802
:1024D000012040F27042C4F202029142019022D0E7
:1024E000FFE708980168012040F28842C4F2020226
:1024F0009142019017D0FFE708980168012040F24F
:10250000A042C4F20202914201900CD0FFE7089869
:1025100000684FF64831CBF6FD710844B0FA80F000
:1025200040090190FFE70198C00750B3FFE7089802
:10253000C06D00F01F013F20884004998860089812
:102540000168086820F480200860059808990968E7
:10255000486008988068402809D1FFE706980899E4
:1025600009688860079808990968C86008E00798B2
:10257000089909688860069808990968C860FFE7A3
:1025800082E008980168012045F20842C5F602027F
:10259000914200904ED0FFE708980168012045F273
:1025A0001C42C5F602029142009043D0FFE7089812
:1025B0000168012045F23042C5F6020291420090C6
:1025C00038D0FFE708980168012045F24442C5F67B
:1025D0000202914200902DD0FFE708980168012087
:1025E00045F25842C5F602029142009022D0FFE720
:1025F00008980168012045F26C42C5F6020291423A
:10260000009017D0FFE708980168012045F280424A
:10261000C5F60202914200900CD0FFE708980068CE
:102620004AF66C31CAF2FD710844B0FA80F04009F4
:102630000090FFE70098C00720B3FFE70898C06D3F
:1026400000F01F010120884003994860059808990F
:102650000968486008988068402809D1FFE7069813
:10266000089909688860079808990968C86008E0AF
:102670000798089909688860069808990968C860E9
:10268000FFE700E0FFE7FFE709B070470000000048
:10269000704700000000000080B582B0EFF31080AA
:1026A00072B60190FFE749F2F220C0F6040049F249
:1026B000EC21C0F6040109F02BFFF4E70000000054
:1026C00044F60C01C5F60201086840F002000860FB
:1026D000FFE744F60400C5F6020000688004002805
:1026E00001D4FFE7F5E7704780B58AB0099040F262
:1026F0000000C2F20040079048F20801C2F2004117
:1027000001910EF07DFB44F20800C2F200400890F7
:1027100048F20801C2F2014102910EF015FB019846
:1027200048F20801C2F2024103910DF0A5FF0298A0
:102730004CF20801C2F2034105910DF09DFF039890
:1027400040F23E01C2F2054104910EF0FDF80598F9
:1027500040F23801C2F2054106910EF0F5F80398F7
:102760000499059A069BDDF824C0EE46CEF800C019
:1027700000F00EF8079844F20801FEF713FA0898E3
:102780004FF48041FEF70EFA0AB080BD0000000051
:1027900080B592B00DF1100CCDF808C0DDF850C036
:1027A000119010910F920E930E980088ADF836009C
:1027B00010980088ADF8340010984088ADF83200C9
:1027C000BDF83400BDF83610401AFEF7E0F90128D4
:1027D00009DCFFE7BDF83400ADF82E00BDF832008B
:1027E000ADF8300008E0BDF83200ADF82E00BDF8BD
:1027F0003400ADF83000FFE7119800F58030BDF8E7
:10280000301000F025F9029880ED060A0F9800F5C7
:102810008030BDF8301000F01BF902989FED821A4D
:1028200020EE010A80ED050A0021089190ED060ACC
:1028300090ED051AB4EE410AF1EE10FA0FDDFFE754
:10284000029890ED060A20EE000A90ED051A01EEBE
:10285000410A0EF099FD029880ED040A09E0029801
:1028600090ED060A9FED711A20EE010A80ED040A30
:10287000FFE7029890ED040A9FED6D1A80EE010AC1
:102880009FED6C1A20EE010A80ED030A90ED031A09
:1028900040F23000C2F2054090ED000A9FED622A3E
:1028A00020EE020A9FED612A01EE020A80ED000A85
:1028B00090ED000A0AF0C0FE149880ED010A149809
:1028C00090ED010A9FED5C1AB4EE410AF1EE10FAA8
:1028D00006DAFFE7149900204860149908600BE0BD
:1028E000BDF8300000EB800000EE100AB8EEC00A20
:1028F000149880ED000AFFE71499002000900872F8
:102900000F9800F58030BDF8361000F0A1F802995C
:10291000009881ED020A91ED020A9FED451A80EEC2
:10292000010A81ED010A04900F98BDF836100AF0F3
:1029300003FE8DF80F009DF80F000146019140B194
:10294000FFE70198012807D0FFE70198022811D07E
:102950001EE0059804901EE0029890ED010A9FED9C
:10296000391A20EE010A9FED361A80EE010A80ED39
:10297000000A10E0029890ED010A9FED301A20EE57
:10298000010A9FED2F1A80EE010A80ED000A02E095
:1029900005980490FFE7029890ED000A9FED2A1A2F
:1029A00020EE010A80ED000A90ED001A40F234009A
:1029B000C2F2054090ED000A9FED1B2A20EE020AAC
:1029C0009FED1A2A01EE020A80ED000A90ED000A3E
:1029D0000AF032FE149880ED040A149890ED040A6F
:1029E0009FED151AB4EE410AF1EE10FA09DAFFE78D
:1029F0001499002008611499C8601499032008757F
:102A00000FE0BDF82E0000EB800000EE100AB8EEDB
:102A1000C00A149880ED030A9DF80F0014990875F8
:102A2000FFE712B080BD00BFCDCC4C3FCDCC4C3EBB
:102A300000000045E17A14406666663FE2E91D4009
:102A4000A470FD3FF90FC93F6666A63F0000000075
:102A500080B586B00490ADF80E10BDF80E000128C8
:102A600006DBFFE7BDF80E00B0F5805F07DBFFE790
:102A70000498BDF80E1050F82100059025E0049848
:102A8000BDF80E1000EB810050F8040C0290049881
:102A9000BDF80E1050F8210001900498BDF80E10FA
:102AA00000EB8100406800909DED021A9DED010A47
:102AB00020EE000A01EE010A9DED001A01EE010A66
:102AC0000EF062FC8DED050AFFE79DED050A06B0EC
:102AD00080BD00000000000080B5AAB026902591BE
:102AE00000208DF893002190269890F83800012856
:102AF00001D1FFE700E0FFE72598C0680021C4F29C
:102B0000FF71884201D0FFE71EE02698006842F27C
:102B10000001C4F20201884201D1FFE7FFE72698D5
:102B2000006842F20011C4F20201884201D1FFE7BD
:102B3000FFE72698006846F20001C5F602018842C8
:102B400001D1FFE7FFE7FFE7FFE7269890F8500085
:102B5000012804D1FFE702208DF89F00F1E32699B8
:102B6000012081F85000FFE7FFE72698006809F090
:102B7000AFFE002840F0D183FFE72598C07800061B
:102B800000282DD4FFE725980068000330B9FFE73F
:102B900025980068C0F384601E9015E025980068B1
:102BA00090FAA0F02890289820B9FFE720208DF80F
:102BB000A70005E02898B0FA80F08DF8A700FFE79D
:102BC0009DF8A7001E90FFE71E9800F01F0101204E
:102BD00000FA01F226980168C8691043C861FFE74E
:102BE0002698006825990A68496809F095FE269894
:102BF000006809F06DFE20902698006809F030FE0C
:102C00001F902098002840F0B580FFE71F9800280B
:102C100040F0B080FFE726980068259A1168926816
:102C200009F0EAFE41F20000C5F60040006800F03D
:102C30007040B0F1805F0BD1FFE72598406926997D
:102C40000968C96801F01C01490888401D901FE00F
:102C500026980068C068C00600280BD4FFE72598B6
:102C6000406926990968C96801F01C014908884033
:102C70001C900AE02598406926990968C96801F006
:102C80001001490888401C90FFE71C981D90FFE741
:102C90001D98239025980069042821D0FFE72698E5
:102CA000006825990A680969239B09F011FF269895
:102CB0000068259A1169527E013AB2FA82F25209ED
:102CC000D20709F021FF26980068259A1169127E23
:102CD000013AB2FA82F25209D20209F0E5FE48E066
:102CE00026980068006E00F0F84025990968B0EB5E
:102CF000816F07D1FFE726980168086E20F0004039
:102D00000866FFE726980068406E00F0F8402599B5
:102D10000968B0EB816F07D1FFE726980168486E1C
:102D200020F000404866FFE726980068806E00F0BB
:102D3000F84025990968B0EB816F07D1FFE7269825
:102D40000168886E20F000408866FFE726980068DA
:102D5000C06E00F0F84025990968B0EB816F07D18B
:102D6000FFE726980168C86E20F00040C866FFE7BC
:102D7000FFE7FFE72698006809F09AFD002840F079
:102D8000CB82FFE726980068259A1168D26809F07F
:102D90004FFE2598C0680021C4F2FF71884240F0C0
:102DA0005781FFE7269800681B9042F20001C4F2A9
:102DB0000201884240F0A480FFE7259800680221C4
:102DC000C0F23041884203D1FFE701201A9094E01D
:102DD000259800680421C0F66001884205D1FFE70C
:102DE0004020C1F62010199084E025980068082141
:102DF000C0F69041884205D1FFE78020C1F65050CF
:102E0000189074E0259800681021C1F2C001884232
:102E100006D1FFE740F20010C2F28010179063E085
:102E2000259800682021C1F2F041884206D1FFE7D1
:102E300040F20020C2F2B050169052E0259800688F
:102E400040F20041C2F60021884206D1FFE740F679
:102E50000000C2F63060159040E02598006840F60A
:102E60000001C2F63061884206D1FFE741F200005E
:102E7000C3F2602014902EE02598006841F2000112
:102E8000C3F26021884206D1FFE742F20000C3F29C
:102E9000906013901CE0259800680021C4F2213155
:102EA000884205D1FFE70020C4F2527012900CE076
:102EB000259801680022C4F684320020914204BFA4
:102EC0000020C4F6B8701290FFE712981390FFE745
:102ED00013981490FFE714981590FFE71598169033
:102EE000FFE716981790FFE717981890FFE71898D4
:102EF0001990FFE719981A90FFE71A981190A2E02D
:102F00002698006842F20011C4F20201884240F0A3
:102F10009480FFE7259800680221C0F23041884282
:102F200003D1FFE70120109084E025980068042178
:102F3000C0F66001884205D1FFE74020C1F62010AD
:102F40000F9074E0259800680821C0F690418842EF
:102F500005D1FFE78020C1F650500E9064E025981F
:102F600000681021C1F2C001884206D1FFE740F29B
:102F70000010C2F280100D9053E0259800682021C7
:102F8000C1F2F041884206D1FFE740F20020C2F2D0
:102F9000B0500C9042E02598006840F20041C2F623
:102FA0000021884206D1FFE740F60000C2F63060FB
:102FB0000B9030E02598006840F60001C2F63061C1
:102FC000884206D1FFE741F20000C3F260200A9078
:102FD0001EE02598006841F20001C3F2602188429A
:102FE00006D1FFE742F20000C3F2906009900CE0C6
:102FF000259801680022C4F684320020914204BF63
:103000000020C4F6B8700990FFE709980A90FFE71E
:103010000A980B90FFE70B980C90FFE70C980D9027
:10302000FFE70D980E90FFE70E980F90FFE70F98BF
:103030001090FFE71098089002E000200890FFE74A
:1030400008981190FFE71B98119909F0A5FCFFE77C
:103050002598C0780006002840F15D81FFE726989A
:103060000168012042F20002C4F20202914207907C
:103070000CD0FFE7269800684DF60071CBF6FD7185
:103080000844B0FA80F040090790FFE70798C107AD
:1030900046F20030C5F6020000291CBF42F20030A3
:1030A000C4F2020009F0CCFB2290269801684FF090
:1030B000010042F20002C4F20202914206900CD0DA
:1030C000FFE7269800684DF60071CBF6FD710844C5
:1030D000B0FA80F040090690FFE70698C10746F273
:1030E0000030C5F6020000291CBF42F20030C4F2D5
:1030F000020042F20031C4F20201884212D1FFE71D
:1031000042F20000C4F2020009F0D2FB049042F245
:103110000010C4F2020009F0CBFB014604980843FA
:10312000059007E046F20000C5F6020009F0C0FB7A
:103130000590FFE70598002840F0E380FFE7259819
:1031400000680021CCF68431884255D1FFE79DF814
:103150008A00000600284FD4FFE72698006846F250
:103160000001C5F60201884245D1FFE726980168B3
:10317000012042F20002C4F20202914203900CD0FC
:10318000FFE7269800684DF60071CBF6FD71084404
:10319000B0FA80F040090390FFE70398C10746F2B8
:1031A0000030C5F6020000291CBF42F20030C4F214
:1031B0000200229941F4000109F066FC40F214007B
:1031C000C2F2054000684FEA901042F66351C0F227
:1031D0003E51A0FB01104FEA90114FF0020000EBAE
:1031E00041002190FFE7219820B1FFE721980138A5
:1031F0002190F8E7FFE783E0259800680021CCF2F2
:103200005271884238D1FFE79DF88B00C00798BB08
:10321000FFE72698006846F20001C5F602018842E1
:1032200029D1FFE726980168012042F20002C4F28A
:103230000202914202900CD0FFE7269800684DF6FA
:103240000071CBF6FD710844B0FA80F0400902909D
:10325000FFE70298C10746F20030C5F602000029D8
:103260001CBF42F20030C4F20200229941F080718A
:1032700009F00AFCFFE742E0259800680021CCF63F
:10328000B871884239D1FFE79DF88A0040060028CE
:1032900033D4FFE72698006846F20001C5F6020124
:1032A000884229D1FFE726980168012042F20002F6
:1032B000C4F20202914201900CD0FFE72698006808
:1032C0004DF60071CBF6FD710844B0FA80F040096C
:1032D0000190FFE70198C10746F20030C5F60200F1
:1032E00000291CBF42F20030C4F20200229941F4CE
:1032F000800109F0C9FBFFE700E0FFE7FFE7FFE718
:1033000008E02699486D40F02000486501208DF8BE
:103310009300FFE7FFE7FFE708E02699486D40F0DC
:103320002000486501208DF89300FFE7FFE726990C
:10333000002081F85000FFE79DF893008DF89F0072
:10334000FFE79DF89F002AB080BD0000000000004C
:1033500081B000900098006842F20011C4F20201AE
:10336000884207D1FFE740F24501C2F20541012042
:103370000870FFE701B0704781B0009001B070475E
:1033800081B0009001B0704710B58CB00A90002059
:103390008DF8270006900A9820B9FFE701208DF8E4
:1033A0002F00D1E10A98C06838B1FFE70A98007F82
:1033B000012801D1FFE7FFE7FFE70A98406D50B908
:1033C000FFE70A9800F0C4F90A99002088650A9975
:1033D00081F85000FFE70A98006809F059FA28B10F
:1033E000FFE70A98006809F0FFF9FFE70A9800680C
:1033F00009F066FAE8B9FFE70A98006809F010FAE0
:1034000040F21400C2F205400068800942F66351A0
:10341000C0F23E51A0FB0101012000EB911006908B
:10342000FFE7069820B1FFE7069801380690F8E715
:10343000FFE70A98006809F043FA70B9FFE70A99B4
:10344000486D40F0100048650A99886D40F0010011
:10345000886501208DF82700FFE70A98006809F0C9
:1034600037FA07900A98406DC006002800F15E8187
:10347000FFE70798002840F05981FFE70A98406D60
:1034800040F0020020F480700A9948650A980068AC
:1034900009F00EFA002870D1FFE70A9801680120B0
:1034A00042F20002C4F20202914203900CD0FFE704
:1034B0000A9800684DF60071CBF6FD710844B0FA29
:1034C00080F040090390FFE70398C10746F20030FF
:1034D000C5F6020000291CBF42F20030C4F202000F
:1034E00042F20031C4F20201884212D1FFE742F2F7
:1034F0000000C4F2020009F0DBF9019042F2001072
:10350000C4F2020009F0D4F9014601980843029080
:1035100007E046F20000C5F6020009F0C9F9029082
:10352000FFE7029840BBFFE70A980168012042F2DA
:103530000002C4F20202914200900CD0FFE70A9808
:1035400000684DF60071CBF6FD710844B0FA80F0CA
:1035500040090090FFE70098C10746F20030C5F629
:10356000020000291CBF42F20030C4F202000A9996
:10357000496809F079FAFFE7FFE703F039FE41F205
:103580000401884213D3FFE70A98806810280ED1FF
:10359000FFE70A994A7D086B40EA42308A68104387
:1035A000097F40EA014040F00C0008900BE00A99C6
:1035B0004A7D086B40EA42308A681043097F40EA3E
:1035C00001400890FFE70A98007F01280BD1FFE730
:1035D0000A98016A0020CFF6FE7000EB414108987E
:1035E00008430890FFE70A98406A50B1FFE70A993C
:1035F000486A896A00F47870014308980843089083
:10360000FFE70A980068C0684CF20301CFF6F0713A
:103610000840089908430A990968C8600A98006830
:1036200009F056F905900A98006809F019F9049014
:103630000598002859D1FFE70498002855D1FFE7E5
:103640000A98017DC06A40EA813008900A980068B3
:10365000C06844F203018843089908430A9909683D
:10366000C8600A9890F83800012829D1FFE70A9825
:10367000406A20B1FFE70A98806A08B9FFE7FFE7D0
:103680000A98006800694FF61E01CFF6004100EA73
:1036900001020A9B1968DC6BD3F840E0D3F844C000
:1036A0000020CFF6FF7000EB044040EA0E0040EA35
:1036B0000C009B6C1843104340F00100086106E0C9
:1036C0000A980168086920F001000861FFE70A987C
:1036D0000068006920F070400A9A1168526B10432C
:1036E00008610A98FDF770FEFFE70A98C068012894
:1036F0000CD1FFE70A980068006B20F00F000A9ACF
:1037000011689269013A1043086306E00A9801685B
:10371000086B20F00F000863FFE70A98406D40F047
:10372000010020F002000A99486508E00A99486DF6
:1037300040F01000486501208DF82700FFE79DF854
:1037400027008DF82F00FFE79DF82F000CB010BD6B
:1037500080B5BAB0399000203890379036903590C7
:10376000349004A8C021FDF71DFA3998006842F290
:103770000011C4F20201884272D1FFE700200590D7
:103780004FF400210491022106910C220792089126
:1037900009910A91C0210B9120210C910D902D903F
:1037A00004A805F00DF918B1FFE7FEF775FFFFE774
:1037B000FFE744F2D840C5F60200016841F020015D
:1037C0000160006800F0200003900398FFE7FFE726
:1037D00044F2E040C5F60200016841F001010160D9
:1037E000006800F0010002900298FFE7802034900A
:1037F000032035900020009036900020C5F602008E
:1038000034A903F0E1FA009940F2AC00C2F205409D
:10381000019040F21042C4F2020202600A224260A9
:103820008160C1604FF4806202614FF400624261C6
:103830004FF400528261C1610162416202F068FA94
:1038400018B1FFE7FEF728FFFFE7FFE7399840F2DE
:10385000AC01C2F20541C16439988863FFE7FFE714
:103860003AB080BD0000000080B588B00690059198
:10387000049206980168012042F20002C4F202029A
:10388000914201900CD0FFE7069800684DF6007158
:10389000CBF6FD710844B0FA80F040090190FFE7D3
:1038A0000198C10746F20030C5F6020000291CBF8E
:1038B00042F20030C4F2020008F0CAFF02900698FB
:1038C000006809F005F8002840F0AF80FFE7FFE747
:1038D000069890F85000012804D1FFE702208DF8E7
:1038E0001F00ABE00699012081F85000FFE7FFE7D9
:1038F000029848B1FFE70298052805D0FFE7029833
:10390000092840F08780FFE70698FEF729F88DF830
:103910000F009DF80F00002874D1FFE70698406D56
:1039200040F4807040F60161884306994865069826
:10393000006842F20011C4F20201884206D1FFE79A
:1039400042F20000C4F20200009003E00698006812
:103950000090FFE7009806990968884203D0FFE7C6
:10396000029830B9FFE70699486D20F48010486549
:10397000FFE70698406DC004002806D5FFE70699CA
:10398000886D20F00600886503E0069900208865B0
:10399000FFE70698C16C41F27970C0F60000C86379
:1039A0000698C16C41F68100C0F6000008640698D4
:1039B000C16C41F65100C0F60000C8640698016869
:1039C0001C200860FFE70699002081F85000FFE7FF
:1039D00006980168486840F0100048600699086839
:1039E000C96A08F089FF06980168C06C4031059AE1
:1039F000049B02F041FE8DF80F000698006808F065
:103A0000ABFF06E0FFE70699002081F85000FFE7D2
:103A1000FFE709E001208DF80F00FFE7069900207D
:103A200081F85000FFE7FFE703E002208DF80F0068
:103A3000FFE79DF80F008DF81F00FFE79DF81F00BE
:103A400008B080BD0000000080B584B00290FFE7A0
:103A5000029890F85000012804D1FFE702208DF869
:103A60000F005DE00299012081F85000FFE7FFE7B9
:103A700002980321FDF7B4FD8DF807009DF80700BB
:103A8000002842D1FFE702980068C06820F00300D8
:103A900002990968C8600298C06C90F83500022845
:103AA00011D1FFE70298C06C00F03EF88DF80700D6
:103AB0009DF8070030B1FFE70299486D40F04000E3
:103AC0004865FFE7FFE702980168486820F01000AA
:103AD00048609DF8070030B9FFE70298FDF7DCFE6B
:103AE0008DF8070003E00298FDF7D6FEFFE79DF88A
:103AF000070048B9FFE70298406D40F0010020F44C
:103B0000885002994865FFE7FFE7FFE70299002028
:103B100081F85000FFE79DF807008DF80F00FFE7E0
:103B20009DF80F0004B080BD80B58AB0089003F006
:103B300067FB0490089828B9FFE701208DF827005B
:103B400000F0AABC089890F8350002280ED0FFE7D4
:103B5000089980204865FFE70899002081F8340023
:103B6000FFE701208DF8270000F096BC0898016857
:103B700001201022C4F202029142039000F0A380BF
:103B8000FFE70898016801202822C4F2020291424E
:103B9000039000F09880FFE7089801680120402218
:103BA000C4F202029142039000F08D80FFE7089872
:103BB000016801205822C4F202029142039000F0F1
:103BC0008280FFE70898016801207022C4F2020297
:103BD0009142039077D0FFE708980168012088227E
:103BE000C4F20202914203906DD0FFE70898016889
:103BF0000120A022C4F202029142039063D0FFE7A9
:103C0000089801680120B822C4F202029142039090
:103C100059D0FFE708980168012040F21042C4F231
:103C20000202914203904ED0FFE7089801680120FC
:103C300040F22842C4F202029142039043D0FFE7CF
:103C400008980168012040F24042C4F20202914209
:103C5000039038D0FFE708980168012040F25842ED
:103C6000C4F20202914203902DD0FFE70898016848
:103C7000012040F27042C4F202029142039022D02D
:103C8000FFE708980168012040F28842C4F202026E
:103C90009142039017D0FFE708980168012040F295
:103CA000A042C4F20202914203900CD0FFE70898B0
:103CB00000684FF64831CBF6FD710844B0FA80F049
:103CC00040090390FFE70398C00780B1FFE7089819
:103CD0000168086820F01E000860089801684869BB
:103CE00020F08000486108980068059009E0089875
:103CF0000168086820F00E000860089800680590C8
:103D0000FFE70898016801201022C4F202029142E4
:103D1000029000F00381FFE7089801680120282243
:103D2000C4F202029142029000F0F880FFE7089886
:103D3000016801204022C4F202029142029000F088
:103D4000ED80FFE70898016801205822C4F20202C2
:103D50009142029000F0E280FFE70898016801209C
:103D60007022C4F202029142029000F0D780FFE775
:103D70000898016801208822C4F202029142029050
:103D800000F0CC80FFE7089801680120A022C4F26F
:103D900002029142029000F0C180FFE7089801689A
:103DA0000120B822C4F202029142029000F0B680D3
:103DB000FFE708980168012040F21042C4F20202B5
:103DC0009142029000F0AA80FFE708980168012064
:103DD00040F22842C4F202029142029000F09E801A
:103DE000FFE708980168012040F24042C4F2020255
:103DF0009142029000F09280FFE70898016801204C
:103E000040F25842C4F202029142029000F08680D1
:103E1000FFE708980168012040F27042C4F20202F4
:103E2000914202907AD0FFE708980168012040F2A1
:103E30008842C4F20202914202906FD0FFE70898D4
:103E40000168012040F2A042C4F2020291420290B5
:103E500064D0FFE708980168012040F2B842C4F23C
:103E600002029142029059D0FFE7089801680120B0
:103E700045F20842C5F60202914202904ED0FFE799
:103E800008980168012045F21C42C5F602029142E1
:103E9000029043D0FFE708980168012045F23042C4
:103EA000C5F602029142029038D0FFE708980168F7
:103EB000012045F24442C5F60202914202902DD003
:103EC000FFE708980168012045F25842C5F6020252
:103ED0009142029022D0FFE708980168012045F244
:103EE0006C42C5F602029142029017D0FFE7089893
:103EF0000168012045F28042C5F60202914202901B
:103F00000CD0FFE7089800684AF66C31CAF2FD71E0
:103F10000844B0FA80F040090290FFE70298C00719
:103F200038B1FFE70898016E086820F480700860D7
:103F3000FFE7089800681021C4F20201884200F0EF
:103F40008180FFE7089800682821C4F202018842B6
:103F500078D0FFE7089800684021C4F20201884247
:103F600070D0FFE7089800685821C4F20201884227
:103F700068D0FFE7089800687021C4F20201884207
:103F800060D0FFE7089800688821C4F202018842E7
:103F900058D0FFE708980068A021C4F202018842C7
:103FA00050D0FFE708980068B821C4F202018842A7
:103FB00048D0FFE70898006840F21041C4F20201BF
:103FC00088423FD0FFE70898006840F22841C4F2D9
:103FD0000201884236D0FFE70898006840F240416D
:103FE000C4F2020188422DD0FFE70898006840F231
:103FF0005841C4F20201884224D0FFE708980068C3
:1040000040F27041C4F2020188421BD0FFE70898D9
:10401000006840F28841C4F20201884212D0FFE7F2
:104020000898006840F2A041C4F20201884209D019
:10403000FFE70898006840F2B841C4F202018842E4
:1040400007D1FFE708980168086820F001000860C0
:1040500006E008980168086820F001000860FFE7A2
:10406000FFE705980068C007C8B1FFE703F0C8F88C
:104070000499401A062811D3FFE7089920204865C3
:104080000899032081F83500FFE70899002081F89E
:104090003400FFE701208DF82700FDE1E1E70898F3
:1040A000016801201022C4F202029142019000F046
:1040B000A380FFE70898016801202822C4F20202C9
:1040C0009142019000F09880FFE708980168012074
:1040D0004022C4F202029142019000F08D80FFE77D
:1040E0000898016801205822C4F20202914201900E
:1040F00000F08280FFE70898016801207022C4F276
:1041000002029142019077D0FFE7089801680120F0
:104110008822C4F20202914201906DD0FFE7089814
:1041200001680120A022C4F202029142019063D0F2
:10413000FFE7089801680120B822C4F20202914208
:10414000019059D0FFE708980168012040F2104221
:10415000C4F20202914201904ED0FFE70898016834
:10416000012040F22842C4F202029142019043D061
:10417000FFE708980168012040F24042C4F20202C1
:104180009142019038D0FFE708980168012040F281
:104190005842C4F20202914201902DD0FFE70898E4
:1041A0000168012040F27042C4F202029142019083
:1041B00022D0FFE708980168012040F28842C4F24B
:1041C00002029142019017D0FFE708980168012090
:1041D00040F2A042C4F20202914201900CD0FFE7EB
:1041E000089800684FF64831CBF6FD710844B0FAE4
:1041F00080F040090190FFE70198C00760B1FFE738
:104200000898806D07900898C06D00F01F013F204E
:104210008840079988600BE00898806D06900898A0
:10422000C06D00F01F010120884006994860FFE73B
:104230000898016801201022C4F202029142009005
:1042400000F00381FFE70898016801202822C4F2EA
:1042500002029142009000F0F880FFE708980168A0
:1042600001204022C4F202029142009000F0ED8051
:10427000FFE70898016801205822C4F20202914227
:10428000009000F0E280FFE70898016801207022AA
:10429000C4F202029142009000F0D780FFE7089834
:1042A000016801208822C4F202029142009000F0CD
:1042B000CC80FFE7089801680120A022C4F2020226
:1042C0009142009000F0C180FFE70898016801204A
:1042D000B822C4F202029142009000F0B680FFE7DB
:1042E00008980168012040F21042C4F20202914293
:1042F000009000F0AA80FFE708980168012040F2D2
:104300002842C4F202029142009000F09E80FFE732
:1043100008980168012040F24042C4F20202914232
:10432000009000F09280FFE708980168012040F2B9
:104330005842C4F202029142009000F08680FFE7EA
:1043400008980168012040F27042C4F202029142D2
:1043500000907AD0FFE708980168012040F2884277
:10436000C4F20202914200906FD0FFE70898016802
:10437000012040F2A042C4F202029142009064D0B7
:10438000FFE708980168012040F2B842C4F2020237
:104390009142009059D0FFE708980168012045F24A
:1043A0000842C5F60202914200904ED0FFE70898FD
:1043B0000168012045F21C42C5F6020291420090BC
:1043C00043D0FFE708980168012045F23042C5F666
:1043D00002029142009038D0FFE70898016801205E
:1043E00045F24442C5F60202914200902DD0FFE70B
:1043F00008980168012045F25842C5F60202914230
:10440000009022D0FFE708980168012045F26C4235
:10441000C5F602029142009017D0FFE708980168A4
:10442000012045F28042C5F60202914200900CD074
:10443000FFE7089800684AF66C31CAF2FD7108443B
:10444000B0FA80F040090090FFE70098C007A0B1E3
:10445000FFE70898416E806E48600898C06E58B1BA
:10446000FFE70898C16E086820F48070086008981B
:10447000016F406F4860FFE7FFE70899012081F86E
:104480003500FFE70899002081F83400FFE7FFE7D7
:1044900000208DF82700FFE79DF827000AB080BDB7
:1044A00080B586B00490049820B9FFE701208DF80C
:1044B000170046E3049890F83500022807D0FFE77C
:1044C00004998020486501208DF8170039E304988D
:1044D000016801201022C4F202029142029000F011
:1044E000A380FFE70498016801202822C4F2020299
:1044F0009142029000F09880FFE704980168012043
:104500004022C4F202029142029000F08D80FFE747
:104510000498016801205822C4F2020291420290DC
:1045200000F08280FFE70498016801207022C4F245
:1045300002029142029077D0FFE7049801680120BF
:104540008822C4F20202914202906DD0FFE70498E3
:1045500001680120A022C4F202029142029063D0BD
:10456000FFE7049801680120B822C4F202029142D8
:10457000029059D0FFE704980168012040F21042F0
:10458000C4F20202914202904ED0FFE70498016803
:10459000012040F22842C4F202029142029043D02C
:1045A000FFE704980168012040F24042C4F2020291
:1045B0009142029038D0FFE704980168012040F250
:1045C0005842C4F20202914202902DD0FFE70498B3
:1045D0000168012040F27042C4F20202914202904E
:1045E00022D0FFE704980168012040F28842C4F21B
:1045F00002029142029017D0FFE70498016801205F
:1046000040F2A042C4F20202914202900CD0FFE7B5
:10461000049800684FF64831CBF6FD710844B0FAB3
:1046200080F040090290FFE70298C007002800F0E0
:104630009D80FFE70499042081F835000498006804
:104640001021C4F20201884200F08180FFE7049843
:1046500000682821C4F20201884278D0FFE704985C
:1046600000684021C4F20201884270D0FFE704983C
:1046700000685821C4F20201884268D0FFE704981C
:1046800000687021C4F20201884260D0FFE70498FC
:1046900000688821C4F20201884258D0FFE70498DC
:1046A0000068A021C4F20201884250D0FFE70498BC
:1046B0000068B821C4F20201884248D0FFE704989C
:1046C000006840F21041C4F2020188423FD0FFE787
:1046D0000498006840F22841C4F20201884236D0B2
:1046E000FFE70498006840F24041C4F202018842AA
:1046F0002DD0FFE70498006840F25841C4F202014F
:10470000884224D0FFE70498006840F27041C4F268
:10471000020188421BD0FFE70498006840F28841FC
:10472000C4F20201884212D0FFE70498006840F208
:10473000A041C4F20201884209D0FFE70498006852
:1047400040F2B841C4F20201884207D1FFE7049861
:104750000168086820F00100086006E0049801681C
:10476000086820F001000860FFE7E5E104980168AF
:10477000086820F00E000860049800681021C4F258
:104780000201884200F08180FFE704980068282138
:10479000C4F20201884278D0FFE704980068402103
:1047A000C4F20201884270D0FFE7049800685821E3
:1047B000C4F20201884268D0FFE7049800687021C3
:1047C000C4F20201884260D0FFE7049800688821A3
:1047D000C4F20201884258D0FFE704980068A02183
:1047E000C4F20201884250D0FFE704980068B82163
:1047F000C4F20201884248D0FFE70498006840F202
:104800001041C4F2020188423FD0FFE704980068DB
:1048100040F22841C4F20201884236D0FFE70498F2
:10482000006840F24041C4F2020188422DD0FFE707
:104830000498006840F25841C4F20201884224D032
:10484000FFE70498006840F27041C4F20201884218
:104850001BD0FFE70498006840F28841C4F20201CF
:10486000884212D0FFE70498006840F2A041C4F2E9
:104870000201884209D0FFE70498006840F2B8417D
:10488000C4F20201884207D1FFE704980168086872
:1048900020F00100086006E004980168086820F034
:1048A00001000860FFE70498016801201022C4F2AB
:1048B00002029142019000F00381FFE70498016831
:1048C00001202822C4F202029142019000F0F880F7
:1048D000FFE70498016801204022C4F202029142DD
:1048E000019000F0ED80FFE7049801680120582254
:1048F000C4F202029142019000F0E280FFE70498C6
:10490000016801207022C4F202029142019000F07D
:10491000D780FFE70498016801208822C4F20202D0
:104920009142019000F0CC80FFE7049801680120DB
:10493000A022C4F202029142019000F0C180FFE780
:10494000049801680120B822C4F202029142019049
:1049500000F0B680FFE704980168012040F21042A1
:10496000C4F202029142019000F0AA80FFE704988D
:104970000168012040F22842C4F2020291420190F3
:1049800000F09E80FFE704980168012040F2404259
:10499000C4F202029142019000F09280FFE7049875
:1049A0000168012040F25842C4F202029142019093
:1049B00000F08680FFE704980168012040F2704211
:1049C000C4F20202914201907AD0FFE70498016894
:1049D000012040F28842C4F20202914201906FD05D
:1049E000FFE704980168012040F2A042C4F20202ED
:1049F0009142019064D0FFE704980168012040F2E1
:104A0000B842C4F202029142019059D0FFE70498E3
:104A10000168012045F20842C5F602029142019068
:104A20004ED0FFE704980168012045F21C42C5F60C
:104A300002029142019043D0FFE7049801680120EF
:104A400045F23042C5F602029142019038D0FFE7AC
:104A500004980168012045F24442C5F602029142E1
:104A600001902DD0FFE704980168012045F25842DB
:104A7000C5F602029142019022D0FFE70498016836
:104A8000012045F26C42C5F602029142019017D016
:104A9000FFE704980168012045F28042C5F6020252
:104AA000914201900CD0FFE7049800684AF66C31FF
:104AB000CAF2FD710844B0FA80F040090190FFE7A6
:104AC0000198C00728B3FFE70498016E086820F436
:104AD000807008600498806D03900498C06D00F0A9
:104AE0001F0101208840039948600498416E806E40
:104AF00048600498C06E58B1FFE70498C16E08681A
:104B000020F4807008600498016F406F4860FFE7F0
:104B1000FFE70499012081F83500FFE704990020A0
:104B200081F83400FFE70498006D20B1FFE7049896
:104B3000016D8847FFE7FFE7FFE700208DF81700CA
:104B4000FFE79DF8170006B080BD000000000000E0
:104B500080B590B00F9000200B9040F21400C2F28C
:104B60000540006848F2B511C1F64E31A0FB0110B6
:104B7000800A0A900F98806D09900F98806D0890B8
:104B8000099800680E90089800680D900F980168C9
:104B900001201022C4F202029142079000F0A3808B
:104BA000FFE70F98016801202822C4F20202914217
:104BB000079000F09880FFE70F98016801204022DD
:104BC000C4F202029142079000F08D80FFE70F9837
:104BD000016801205822C4F202029142079000F0BD
:104BE0008280FFE70F98016801207022C4F2020260
:104BF0009142079077D0FFE70F9801680120882243
:104C0000C4F20202914207906DD0FFE70F9801684D
:104C10000120A022C4F202029142079063D0FFE774
:104C20000F9801680120B822C4F202029142079055
:104C300059D0FFE70F980168012040F21042C4F2FA
:104C40000202914207904ED0FFE70F9801680120C1
:104C500040F22842C4F202029142079043D0FFE79B
:104C60000F980168012040F24042C4F202029142D2
:104C7000079038D0FFE70F980168012040F25842B2
:104C8000C4F20202914207902DD0FFE70F9801680D
:104C9000012040F27042C4F202029142079022D0F9
:104CA000FFE70F980168012040F28842C4F2020237
:104CB0009142079017D0FFE70F980168012040F25A
:104CC000A042C4F20202914207900CD0FFE70F9875
:104CD00000684FF64831CBF6FD710844B0FA80F019
:104CE00040090790FFE70798C007002800F01385E8
:104CF000FFE70E980F99C96D01F01F01C84000072A
:104D0000002840F1B080FFE70F9800681021C4F23E
:104D10000201884200F08180FFE70F980068282197
:104D2000C4F20201884278D0FFE70F980068402162
:104D3000C4F20201884270D0FFE70F980068582142
:104D4000C4F20201884268D0FFE70F980068702122
:104D5000C4F20201884260D0FFE70F980068882102
:104D6000C4F20201884258D0FFE70F980068A021E2
:104D7000C4F20201884250D0FFE70F980068B821C2
:104D8000C4F20201884248D0FFE70F98006840F261
:104D90001041C4F2020188423FD0FFE70F9800683B
:104DA00040F22841C4F20201884236D0FFE70F9852
:104DB000006840F24041C4F2020188422DD0FFE772
:104DC0000F98006840F25841C4F20201884224D092
:104DD000FFE70F98006840F27041C4F20201884278
:104DE0001BD0FFE70F98006840F28841C4F202012F
:104DF000884212D0FFE70F98006840F2A041C4F249
:104E00000201884209D0FFE70F98006840F2B841DC
:104E1000C4F20201884207D1FFE70F9800680068DA
:104E200000F00400069006E00F980068006800F0AB
:104E300008000690FFE70698A0B1FFE70F98016809
:104E4000086820F0040008600F98C06D00F01F0192
:104E500008208840099988600F99486D40F001004A
:104E60004865FFE7FFE70E980F99C96D01F01F0134
:104E7000C840C007002800F0A980FFE70F9800682D
:104E80001021C4F20201884200F08180FFE70F98F0
:104E900000682821C4F20201884278D0FFE70F9809
:104EA00000684021C4F20201884270D0FFE70F98E9
:104EB00000685821C4F20201884268D0FFE70F98C9
:104EC00000687021C4F20201884260D0FFE70F98A9
:104ED00000688821C4F20201884258D0FFE70F9889
:104EE0000068A021C4F20201884250D0FFE70F9869
:104EF0000068B821C4F20201884248D0FFE70F9849
:104F0000006840F21041C4F2020188423FD0FFE73E
:104F10000F98006840F22841C4F20201884236D05E
:104F2000FFE70F98006840F24041C4F20201884256
:104F30002DD0FFE70F98006840F25841C4F20201FB
:104F4000884224D0FFE70F98006840F27041C4F215
:104F5000020188421BD0FFE70F98006840F28841A9
:104F6000C4F20201884212D0FFE70F98006840F2B5
:104F7000A041C4F20201884209D0FFE70F980068FF
:104F800040F2B841C4F20201884207D1FFE70F980E
:104F90000068406900F08000059005E00F98006807
:104FA000006800200590FFE7059870B1FFE70F98B3
:104FB000C06D00F01F0101208840099988600F9999
:104FC000486D40F002004865FFE7FFE70E980F9933
:104FD000C96D01F01F01C8404007002840F1A980B9
:104FE000FFE70F9800681021C4F20201884200F028
:104FF0008180FFE70F9800682821C4F202018842EF
:1050000078D0FFE70F9800684021C4F2020188427F
:1050100070D0FFE70F9800685821C4F2020188425F
:1050200068D0FFE70F9800687021C4F2020188423F
:1050300060D0FFE70F9800688821C4F2020188421F
:1050400058D0FFE70F980068A021C4F202018842FF
:1050500050D0FFE70F980068B821C4F202018842DF
:1050600048D0FFE70F98006840F21041C4F20201F7
:1050700088423FD0FFE70F98006840F22841C4F211
:105080000201884236D0FFE70F98006840F24041A5
:10509000C4F2020188422DD0FFE70F98006840F269
:1050A0005841C4F20201884224D0FFE70F980068FB
:1050B00040F27041C4F2020188421BD0FFE70F9812
:1050C000006840F28841C4F20201884212D0FFE732
:1050D0000F98006840F2A041C4F20201884209D052
:1050E000FFE70F98006840F2B841C4F2020188421D
:1050F00007D1FFE70F980068006800F002000490F5
:1051000005E00F980068006800200490FFE704980D
:1051100070B1FFE70F98C06D00F01F0104208840B8
:10512000099988600F99486D40F004004865FFE7D1
:10513000FFE70E980F99C96D01F01F01C840C00626
:10514000002840F1DE80FFE70F9800681021C4F2CC
:105150000201884200F08180FFE70F980068282153
:10516000C4F20201884278D0FFE70F98006840211E
:10517000C4F20201884270D0FFE70F9800685821FE
:10518000C4F20201884268D0FFE70F9800687021DE
:10519000C4F20201884260D0FFE70F9800688821BE
:1051A000C4F20201884258D0FFE70F980068A0219E
:1051B000C4F20201884250D0FFE70F980068B8217E
:1051C000C4F20201884248D0FFE70F98006840F21D
:1051D0001041C4F2020188423FD0FFE70F980068F7
:1051E00040F22841C4F20201884236D0FFE70F980E
:1051F000006840F24041C4F2020188422DD0FFE72E
:105200000F98006840F25841C4F20201884224D04D
:10521000FFE70F98006840F27041C4F20201884233
:105220001BD0FFE70F98006840F28841C4F20201EA
:10523000884212D0FFE70F98006840F2A041C4F204
:105240000201884209D0FFE70F98006840F2B84198
:10525000C4F20201884207D1FFE70F980068006896
:1052600000F00800039006E00F980068006800F066
:1052700004000390FFE70398002841D0FFE70F9850
:10528000C06D00F01F0110208840099988600F98B8
:1052900000680068400300281AD5FFE70F980068EF
:1052A00000680003002809D4FFE70F98006C20B1C4
:1052B000FFE70F98016C8847FFE708E00F98806CC4
:1052C00020B1FFE70F98816C8847FFE7FFE716E002
:1052D0000F9800680068C005002807D4FFE70F9802
:1052E0000168086820F008000860FFE70F98006C6C
:1052F00020B1FFE70F98016C8847FFE7FFE7FFE762
:10530000FFE70E980F99C96D01F01F01C840800694
:10531000002840F12681FFE70F9800681021C4F2B1
:105320000201884200F08180FFE70F980068282181
:10533000C4F20201884278D0FFE70F98006840214C
:10534000C4F20201884270D0FFE70F98006858212C
:10535000C4F20201884268D0FFE70F98006870210C
:10536000C4F20201884260D0FFE70F9800688821EC
:10537000C4F20201884258D0FFE70F980068A021CC
:10538000C4F20201884250D0FFE70F980068B821AC
:10539000C4F20201884248D0FFE70F98006840F24B
:1053A0001041C4F2020188423FD0FFE70F98006825
:1053B00040F22841C4F20201884236D0FFE70F983C
:1053C000006840F24041C4F2020188422DD0FFE75C
:1053D0000F98006840F25841C4F20201884224D07C
:1053E000FFE70F98006840F27041C4F20201884262
:1053F0001BD0FFE70F98006840F28841C4F2020119
:10540000884212D0FFE70F98006840F2A041C4F232
:105410000201884209D0FFE70F98006840F2B841C6
:10542000C4F20201884207D1FFE70F9800680068C4
:1054300000F01000029006E00F980068006800F08D
:1054400002000290FFE70298002800F08980FFE741
:105450000F98C06D00F01F012020884009998860D6
:105460000F9890F83500042837D1FFE70F980168AE
:10547000086820F0160008600F980168486920F05D
:10548000800048610F98006C20B9FFE70F98806C8E
:1054900038B1FFE70F980168086820F0080008603D
:1054A000FFE70F98C06D00F01F013F208840099969
:1054B00088600F99012081F83500FFE70F990020DF
:1054C00081F83400FFE70F98006D20B1FFE70F98D7
:1054D000016D8847FFE700F019BC0F98006800686D
:1054E000400300281AD5FFE70F9800680068000302
:1054F000002809D4FFE70F98406C20B1FFE70F9810
:10550000416C8847FFE708E00F98C06B20B1FFE7C8
:105510000F98C16B8847FFE7FFE720E00F9800680E
:105520000068C005002811D4FFE70F9801680868DB
:1055300020F0100008600F99012081F83500FFE786
:105540000F99002081F83400FFE7FFE70F98C06B48
:1055500020B1FFE70F98C16B8847FFE7FFE7FFE740
:10556000FFE70F98406D002800F0D480FFE70F9808
:10557000406DC007002800F0C480FFE70F990420A9
:1055800081F835000F9800681021C4F202018842AA
:1055900000F08180FFE70F9800682821C4F2020123
:1055A000884278D0FFE70F9800684021C4F20201DA
:1055B000884270D0FFE70F9800685821C4F20201BA
:1055C000884268D0FFE70F9800687021C4F202019A
:1055D000884260D0FFE70F9800688821C4F202017A
:1055E000884258D0FFE70F980068A021C4F202015A
:1055F000884250D0FFE70F980068B821C4F202013A
:10560000884248D0FFE70F98006840F21041C4F28A
:10561000020188423FD0FFE70F98006840F228411E
:10562000C4F20201884236D0FFE70F98006840F2CA
:105630004041C4F2020188422DD0FFE70F98006874
:1056400040F25841C4F20201884224D0FFE70F988B
:10565000006840F27041C4F2020188421BD0FFE7AB
:105660000F98006840F28841C4F20201884212D0CB
:10567000FFE70F98006840F2A041C4F2020188429F
:1056800009D0FFE70F98006840F2B841C4F2020168
:10569000884207D1FFE70F980168086820F00100F1
:1056A000086006E00F980168086820F001000860B3
:1056B000FFE7FFE70B9801300B900A99884201D968
:1056C000FFE707E0FFE70F9800680068C0070028C1
:1056D000F0D1FFE70F9800680068C00728B1FFE726
:1056E0000F99032081F8350004E00F99012081F81B
:1056F0003500FFE7FFE70F99002081F83400FFE74E
:10570000FFE70F98C06C20B1FFE70F98C16C884786
:10571000FFE7FFE7FAE20F980168012045F208422F
:10572000C5F60202914201904ED0FFE70F98016842
:10573000012045F21C42C5F602029142019043D07D
:10574000FFE70F980168012045F23042C5F60202DA
:105750009142019038D0FFE70F980168012045F28F
:105760004442C5F60202914201902DD0FFE70F9806
:105770000168012045F25842C5F6020291420190AB
:1057800022D0FFE70F980168012045F26C42C5F670
:1057900002029142019017D0FFE70F9801680120A3
:1057A00045F28042C5F60202914201900CD0FFE71B
:1057B0000F9800684AF66C31CAF2FD710844B0FADD
:1057C00080F040090190FFE70198C007002800F031
:1057D0009B82FFE70F98006800680C900D980F9966
:1057E000C96D01F01F01C8404007002840F1D78073
:1057F000FFE79DF830004007002840F1D080FFE728
:105800000F98C06D00F01F0104208840089948607F
:105810009DF831000006002818D5FFE79DF83200FA
:10582000C00748B9FFE70F98806C20B1FFE70F98D9
:10583000816C8847FFE708E00F98006C20B1FFE714
:105840000F98016C8847FFE7FFE7A7E09DF830005D
:105850008006002800F19980FFE70F98006810216A
:10586000C4F20201884200F08180FFE70F980068CF
:105870002821C4F20201884278D0FFE70F9800681F
:105880004021C4F20201884270D0FFE70F980068FF
:105890005821C4F20201884268D0FFE70F980068DF
:1058A0007021C4F20201884260D0FFE70F980068BF
:1058B0008821C4F20201884258D0FFE70F9800689F
:1058C000A021C4F20201884250D0FFE70F9800687F
:1058D000B821C4F20201884248D0FFE70F9800685F
:1058E00040F21041C4F2020188423FD0FFE70F9816
:1058F000006840F22841C4F20201884236D0FFE736
:105900000F98006840F24041C4F2020188422DD055
:10591000FFE70F98006840F25841C4F20201884244
:1059200024D0FFE70F98006840F27041C4F20201F2
:1059300088421BD0FFE70F98006840F28841C4F20C
:105940000201884212D0FFE70F98006840F2A041A0
:10595000C4F20201884209D0FFE70F98006840F2C4
:10596000B841C4F20201884207D1FFE70F980168ED
:10597000086820F00800086006E00F9801680868D1
:1059800020F004000860FFE7FFE70F98006C20B1EB
:10599000FFE70F98016C8847FFE7FFE7B3E10D9839
:1059A0000F99C96D01F01F01C8408007002840F120
:1059B000E180FFE79DF830008007002840F1DA80A1
:1059C000FFE70F98C06D00F01F0102208840089982
:1059D00048609DF831000006002818D5FFE79DF8C3
:1059E0003200C00748B9FFE70F98406C20B1FFE7CD
:1059F0000F98416C8847FFE708E00F98C06B20B113
:105A0000FFE70F98C16B8847FFE7FFE7B1E09DF81C
:105A100030008006002800F1A380FFE70F9800689F
:105A20001021C4F20201884200F08180FFE70F9844
:105A300000682821C4F20201884278D0FFE70F985D
:105A400000684021C4F20201884270D0FFE70F983D
:105A500000685821C4F20201884268D0FFE70F981D
:105A600000687021C4F20201884260D0FFE70F98FD
:105A700000688821C4F20201884258D0FFE70F98DD
:105A80000068A021C4F20201884250D0FFE70F98BD
:105A90000068B821C4F20201884248D0FFE70F989D
:105AA000006840F21041C4F2020188423FD0FFE793
:105AB0000F98006840F22841C4F20201884236D0B3
:105AC000FFE70F98006840F24041C4F202018842AB
:105AD0002DD0FFE70F98006840F25841C4F2020150
