:020000040800F2
:10000000B0080224AD02000859D8000831CA00081F
:1000100051D80008011C000831F70008000000005A
:10002000000000000000000000000000F9DD0008F2
:100030000127000800000000E1D80008A1DE000848
:10004000CB020008CB020008CB020008CB0200085C
:10005000CB020008CB020008CB020008CB0200084C
:10006000CB020008CB020008CB020008091C0008E4
:10007000191C0008291C0008CB020008CB0200084C
:10008000CB020008CB020008CB020008CB0200081C
:10009000CB020008CB020008CB020008CB0200080C
:1000A000CB020008CB020008CB020008CB020008FC
:1000B000CB020008CB020008CB020008CB020008EC
:1000C000CB020008CB020008CB020008CB020008DC
:1000D000CB020008CB020008CB020008D9F50008CB
:1000E000CB020008CB02000800000000CB02000891
:1000F000CB020008CB020008CB020008CB020008AC
:10010000CB020008CB020008CB020008CB0200089B
:10011000CB020008CB020008CB020008CB0200088B
:10012000CB020008CB020008CB020008CB0200087B
:10013000CB020008CB020008CB020008CB0200086B
:1001400000000000000000000000000000000000AF
:10015000CB020008CB020008CB020008CB0200084B
:10016000CB020008CB020008CB020008CB0200083B
:10017000CB020008CB020008CB0200080000000000
:10018000CB020008CB020008CB020008CB0200081B
:10019000CB020008CB020008CB020008CB0200080B
:1001A000CB020008CB020008CB020008CB020008FB
:1001B000CB020008CB020008CB020008CB020008EB
:1001C000CB020008CB020008CB020008CB020008DB
:1001D000CB020008CB020008CB020008CB020008CB
:1001E000CB020008CB020008CB020008CB020008BB
:1001F000CB020008CB020008CB020008CB020008AB
:10020000CB020008CB020008CB020008CB0200089A
:10021000CB020008CB020008CB020008CB0200088A
:10022000CB020008CB020008CB020008000000004F
:10023000CB020008CB02000800000000CB0200083F
:10024000CB020008CB020008CB020008CB0200085A
:10025000CB020008CB020008CB020008CB0200084A
:10026000CB020008CB020008CB020008CB0200083A
:10027000CB020008CB020008CB02000800000000FF
:10028000CB020008CB020008CB02000800000000EF
:1002900000000000CB020008DFF80CD000F038FFAF
:1002A00000480047F90E0108B008022407488047BB
:1002B0000748804707480047FEE7FEE7FEE7FEE7FE
:1002C000FEE7FEE7FEE7FEE7FEE7FEE73127000870
:1002D00099DF0008990200082DE9FF4FABB00546F1
:1002E0002C9C00262194E40806EB040909EB040089
:1002F000039020440290204400EB040805EBC0006A
:10030000139008EB040739190A9105EBC60B006836
:1003100008900146DBF800A0504600F04AFC08991E
:100320000190504600F097FC05EBC80A099005EBD8
:10033000C900DAF800801590D0F800904146484690
:1003400000F037FC41460590484600F084FC05EB80
:10035000C7090890D9F8000004900398049905EBA8
:10036000C008D8F80070384600F023FC04991190BA
:10037000384600F070FC0A990E9005EBC100189009
:10038000006803900298039905EBC0073868049051
:1003900000F00FFC0290DDE9031000F05CFC10900F
:1003A0001199019800F057FC04901199019800F000
:1003B00000FC01900299059800F04DFC1190029903
:1003C000059800F0F6FB05900146019800F0F1FB5E
:1003D000CBF800000599019800F03DFC0146139808
:1003E0000160139840680390DBF8040003990290C1
:1003F00000F0DFFB0190DDE9020100F02CFC06902B
:10040000DAF804000390159803994068029000F010
:10041000D0FB0590DDE9020100F01DFC0790D9F842
:1004200004000390D8F804000399029000F0C1FB87
:100430000B90DDE9020100F00EFC0D901898406869
:100440000A9078680A99039000F0B3FB02900A9929
:10045000039800F000FC0C900B99019800F0FBFB56
:1004600003900B99019800F0A4FB01900299059864
:1004700000F0F1FB0B900299059800F09AFB0590B3
:100480000146019800F095FBCBF80400059901980E
:1004900000F0E1FB0146139841600B99049800F0CD
:1004A00088FBC8F800000B99049800F0D4FBC9F849
:1004B00000001199039800F0CEFBC8F804001199D0
:1004C000039800F076FBC9F804001099089800F032
:1004D000C2FBDFF85486414600F0C3FB1099814609
:1004E000089800F066FB414600F0BBFB0C99834680
:1004F000079800F0B0FB414600F0B3FB05900C9963
:10050000079800F056FB414600F0ABFB07904946C8
:10051000099800F0A0FB04904946099800F049FBB7
:10052000099059460E9800F096FB109059460E9887
:1005300000F03FFB0E90DDE9051000F08CFB03900E
:10054000DDE9051000F035FB069007990D9800F0E5
:1005500082FB079983460D9800F02BFB81460146EC
:10056000099800F026FB0146159801604946099854
:1005700000F071FB0146189801605946049800F09C
:1005800018FBCAF800005946049800F064FB386074
:100590000E99069800F05FFB0146159841600E9990
:1005A000069800F006FB01461898416010990398E0
:1005B00000F051FBCAF804001099039800F0F9FA12
:1005C000219978602C980E448642FFF48DAE082C59
:1005D0003CBF2FB0BDE8F08F002018900120209084
:1005E0002E9918982D9B08442D99189001EBC00C5A
:1005F0002D9F4200209E1118DCF8008003EBC203FF
:10060000CDF854800A18DDF8B48007EBC107111843
:1006100008EBC2081A6814920A18D7F80090104420
:10062000CDF85C90DDF8B49009EBC101D8F80090EA
:10063000CDF85890DDF8B490DCF804C009EBC202A4
:10064000CDF870C0D1F800C009EBC000CDF864C08F
:10065000D2F800C0CDF88CC0D0F800C0CDF888C06A
:100660005B6812937B681A93D8F804301393496837
:100670001B9151681D914068CDF8780006EB040885
:1006800008EB0400039020440290204400EB04098E
:1006900005EBC000249009EB040739190A91D0F842
:1006A00000A005EBC6001F905146D0F800B0584698
:1006B00000F07FFA51460190584600F0CCFA05EB65
:1006C000C80B099005EBC9002590DBF80080D0F835
:1006D00000904046494600F06CFA49460590404675
:1006E00000F0B9FA089005EBC70A0398DAF8007031
:1006F00005EBC0093946D9F80080404600F059FAA8
:1007000039461190404600F0A6FA0A990E9005EB82
:10071000C108D8F8000003900298039905EBC007C0
:100720003868049000F045FA0290DDE9031000F00B
:1007300092FA10901199019800F08DFA0490119995
:10074000019800F036FA01900299059800F083FABA
:1007500011900299059800F02CFA05900146019835
:1007600000F027FA01461F9801600599019800F0F2
:1007700072FA05902498406803901F980399406886
:10078000019000F016FA02900399019800F063FAC4
:100790000690259840680390DBF8040003990190C7
:1007A00000F007FA0A900399019800F054FA0790B4
:1007B000DAF804000390D9F804000399019000F0DE
:1007C000F8F90B900399019800F045FA0D90D8F8CC
:1007D00004000C9078680C99039000F0EAF90190FD
:1007E0000C99039800F037FA0C900B99029800F0DE
:1007F00032FA03900B99029800F0DBF9029001990C
:100800000A9800F028FA0B9001990A9800F0D1F9A3
:100810000A900B99049800F0CCF901900B99049878
:1008200000F019FA04900A99029800F0C2F9014602
:100830001F9841600A99029800F00DFA0A901199E8
:10084000039800F008FA02901199039800F0B1F9AA
:1008500003900599169800F004FA1F900A991398CE
:1008600000F0FFF911900A99169800F0FAF90B9030
:100870000599139800F0F5F90A9011991F9800F066
:1008800098F9014624980160DDE90A1000F0E3F9C7
:100890000146249841600199149800F0E2F91F90F4
:1008A0000299129800F0DDF911900299149800F065
:1008B000D8F90B900199129800F0D3F90A90119988
:1008C0001F9800F076F9C9F80000DDE90A1000F081
:1008D000C2F9C9F804000499239800F0C2F91F90E6
:1008E00003991D9800F0BDF903998146239800F003
:1008F000B8F90B9004991D9800F0B3F90A90494695
:100900001F9800F056F9CAF80000DDE90A1000F05F
:10091000A2F9CAF804001099089800F09CF98249DD
:1009200000F09FF910998146089800F042F97E493D
:1009300000F097F90C998246079800F08CF97A49F3
:1009400000F08FF902900C99079800F032F976497F
:1009500000F087F907904946099800F07CF9049067
:100960004946099800F025F9099051460E9800F083
:1009700072F9109051460E9800F01BF90E900299F2
:10098000069800F068F903900299069800F011F9B2
:10099000069007990D9800F05EF9079982460D9828
:1009A00000F007F981460146099800F002F901902C
:1009B0004946099800F04FF909905146049800F013
:1009C000F8F808905146049800F045F904900E9903
:1009D000069800F040F90E998146069800F0E9F873
:1009E00006901099039800F036F907901099039833
:1009F00000F0DFF803900199159800F032F91F908C
:100A000049461C9800F02DF982461598494600F099
:100A100028F90B9001991C9800F023F981461F9842
:100A2000514600F0C6F8CBF8000049460B9800F09C
:100A300012F9CBF804000999229800F012F91F90DE
:100A400006991E9800F00DF906998346229800F049
:100A500008F9099982461E9800F003F981461F980B
:100A6000594600F0A6F84946C8F80000504600F084
:100A7000F2F8C8F804000899199800F0F2F80799FC
:100A800083461B9800F0EDF807998146199800F00D
:100A9000E8F8089982461B9800F0E3F8804649463A
:100AA000584600F086F801462598016041465046B8
:100AB00000F0D1F80146259841600499179800F09C
:100AC000D0F8039983461A9800F0CBF80399814631
:100AD000179800F0C6F8049982461A9800F0C1F8F9
:100AE00080464946584600F064F841463860504612
:100AF00000F0B1F8219978602C980E448642FFF4FA
:100B0000BDAD2098401C209084423FF669AD2E98E0
:100B10004FF6FF71072C01EAC0002E903FF6E1ABC3
:100B20002FB0BDE8F08F0000F304353F2DE9F05FF2
:100B30000546002092469B4688460646814640244C
:100B40001BE0284641464746224600F0E1F853465E
:100B50005A46C01A914110D311461846224600F059
:100B6000C8F82D1A67EB01084F46224601200021E4
:100B700000F0BFF817EB00094E41201EA4F101045C
:100B8000DFDC484631462A464346BDE8F09FD2B2F4
:100B900001E000F8012B491EFBD270470022F6E766
:100BA00010B513460A4604461946FFF7F0FF2046E3
:100BB00010BDF0B480EA0102D40F4200B2EB410F45
:100BC00002D20246084611464A0042D0C30DDDB2A9
:100BD000C1F3C752AD1A202D35DAC1F3160141F425
:100BE000000204B15242C5F1200602FA06F12A4180
:100BF0001044B3EBD05F23D0C4B1012DA0EBC350A0
:100C000009DCF0BC4FF0004202EAC352DBB200F54F
:100C1000000000F096B8400000F1807000EBC35077
:100C2000A0F1807040EAD170490009E0490841EA2A
:100C3000C071A0EBC35000F50000400800EBC350AA
:100C4000F0BC00F075B86142012202EB4101001BCB
:100C5000F6E7F0BC704781F00041AAE780F0004061
:100C6000A7E780EA010210B502F00043400022D05D
:100C70004A001FD0010E01EB1261C0F35600C2F30F
:100C8000560240F4000042F40002A0FB02200004DF
:100C90007F39140400D0401C50EA124001D44000B7
:100CA000491EC2B20C0604EBD010401C4008802A3A
:100CB00002D003E0002010BD20F00100002900DA7E
:100CC0000020184310BD30B50B46014600202022FD
:100CD000012409E021FA02F59D4205D303FA02F549
:100CE000491B04FA02F52844151EA2F10102F1DCA9
:100CF00030BD202A04DB203A00FA02F100207047C0
:100D00009140C2F1200320FA03F319439040704749
:100D1000202A04DB203A21FA02F00021704721FA50
:100D200002F3D040C2F120029140084319467047B7
:100D30000029A8BF7047401C490008BF20F00100EF
:100D4000704710B4B0FA80FC00FA0CF050EA0104CD
:100D500004BF10BC704749B1CCF1200421FA04F45F
:100D600011FA0CF118BF012121430843A3EB0C0138
:100D7000CB1D4FEA00614FEA102042BF002010BC9B
:100D8000704700EBC35010440029A4BF10BC70474B
:100D9000401C490008BF20F0010010BC70472DE93D
:100DA000FE4F804681EA0300C00F0C46009021F000
:100DB000004123F00045B8EB0200A94105D24046AE
:100DC000214690461C460B46024623F00040104345
:100DD00047D0270DC7F30A00C3F30A510290401A07
:100DE000019040286BDAC3F3130040F4801B009895
:100DF000924620B10023D2EB030A63EB0B0B019860
:100E00005946C0F140025046FFF773FF06460D46B3
:100E100050465946019A00F08DF910EB08006141E7
:100E2000002487EA115284EAE7731A4340D0009AFB
:100E300062B3019A012A4FEA075215DC001B61EBED
:100E400002014FF0004202EA0752CDE90042001CC5
:100E500041F5801132462B4600F08DF903B0BDE814
:100E6000F08F40462146F9E7001B61EB0201001CB0
:100E700041F5801300185B412018A2F5001747EBDD
:100E8000030140EAD570B6196D4111E06D084FEAD3
:100E9000360645EAC0754FEA0752001B61EB0201B6
:100EA000001C41F5801149084FEA300000195141FA
:100EB00032462B4603B0BDE8F04F00F04DB9009824
:100EC000012240000023D0EB020263EBE0730098A4
:100ED00021464FEAE074B8EB000061EB0401E9E75A
:100EE00083F000435BE781F0004158E72DE9FE4FB6
:100EF00081EA030404F0004421F0004100944FF023
:100F0000000B23F0004350EA01045ED052EA0304D0
:100F10005BD0C3F30A54C1F30A552C44A4F2F33452
:100F20000194A0FB0254C1F3130141F48011C3F3F7
:100F3000130343F4801301FB024400FB034E840AB5
:100F4000970A44EA815447EA8357A4FB076802954D
:100F50008D0A05FB07854FEA932C04FB0C542705EB
:100F6000029D4FEA065847EA1637B5EB08056EEBC7
:100F7000070C870E920E47EA811742EA8312A7FBFD
:100F80000201B6EB0B0164EB00042B0D43EA0C33BA
:100F90005E1844EB1C50DA465146E7FB0201C5F3EC
:100FA00013044FEA0B3343EA14534FEA0432019C13
:100FB00043EA0603A4F10C040294009CCDE900B4BA
:100FC00000F0D9F803B0BDE8F08F00200146F9E742
:100FD0002DE9F04D81EA030404F0004B21F00045B7
:100FE00014464FF0000A23F0004150EA050220D0D9
:100FF00054EA01021DD0C5F30A570246C5F3130394
:10100000C1F31300C1F30A5640F4801543F4801372
:10101000A7EB0608101BD64608F2FD3873EB050057
:1010200002D308F1010801E092185B41B8F1000F0A
:1010300003DA00200146BDE8F08D00204FF4801156
:10104000064684460EE0171B73EB050705D3121BFB
:1010500063EB050306434CEA010C49084FEA3000F4
:1010600092185B4150EA0107EDD152EA030012D019
:1010700082EA040083EA0501084305D0101BAB4156
:1010800006D20122002306E000224FF0004302E0D6
:101090006FF0010253101AEB06004CEB085110EBF5
:1010A0000A0041EB0B01BDE8F04D00F055B8C1F36B
:1010B0000A52C1F3130140F2FF3341F480119A4206
:1010C00002DA00200146704740F233439A42A2F20E
:1010D000334202DC5242FFF71BBEFFF70ABE00009C
:1010E00030B5041E71F1000404DB4FF000444042AF
:1010F00064EB0101141E73F1000405DB1C464FF084
:101100000043524263EB0403994208BF904230BD52
:10111000064C074D06E0E06840F0010394E8070044
:1011200098471034AC42F6D3FFF7BAF84895080850
:1011300078950808202A06DBCB17203A41FA02F0FE
:1011400043EAE07306E041FA02F3D040C2F1200224
:10115000914008431946704710B5141E73F10004FE
:1011600008DA401C41F1000192185B411A4301D199
:1011700020F0010010BD2DE9F04D92469B4611B1C3
:10118000B1FA81F202E0B0FA80F220329046FFF725
:10119000B0FD04460F4640EA0A0041EA0B015346FF
:1011A0005A46084313D0114653EA010019D0C8F13A
:1011B00040025046FFF7ACFD05460E4650465946E4
:1011C0004246FFF796FD084305D0012004E0204683
:1011D0003946BDE8F08D0020054346EAE0762C4311
:1011E00037430A986305E40AA0EB08000022FD0AD1
:1011F00044EA47540A3002D500200146E9E70105D8
:1012000010196941DDE9084500196941BDE8F04D53
:10121000A2E730B58C1810F8012B12F00F0301D1A2
:1012200010F8013B120906D110F8012B03E010F869
:10123000015B01F8015B5B1EF9D101E001F8013BA4
:10124000521EFBD1A142E6D3002030BD00000000B9
:1012500040F23210C2F202400121017070470000DA
:1012600080B582B0014601900198006840F2EC22FE
:10127000C2F2024212689042009105D1FFE700F0ED
:1012800043F8FFF7E5FFFFE702B080BD0000000074
:1012900080B58AB00A4603460990089140F264304E
:1012A000C2F202400790069205930AF061FB40F2F9
:1012B000EC21C2F2024104900846039102F07CFE48
:1012C00041F26121C0F60001039AD163099A089B9B
:1012D00040F61001C5F60201DDF80CE00290704600
:1012E00005F08AFC07990A68D36843F48073D360D9
:1012F0000021079A019010460AF0AEFD00900AB056
:1013000080BD00000000000080B582B0FFE740F221
:101310006430C2F202400068006A41F211110842D2
:1013200016D1FFE740F26430C2F202400068006A62
:1013300040F2444108420AD1FFE740F26430C2F271
:1013400002400068016821F001010160FFE7FFE74A
:10135000FFE740F26430C2F202400068C16821F445
:101360008071C16040F2EC20C2F2024002F024FE23
:10137000019002B080BD000080B582B00146ADF89A
:101380000600BDF80600C0F3052040F21412C2F2B8
:1013900002421070BDF80600507000910DF0E4FBA1
:1013A00002B080BD0000000080B584B0014603900B
:1013B0009DED030AB8EE401B9FED0D2B21EE021BA5
:1013C000BCEEC10B8DED020A029840F21412C2F27B
:1013D0000242D0710298000A9071BDF80A00507163
:1013E0009DF80B00107101910DF0BEFB04B080BDA3
:1013F00095D626E80B2E114080B586B001460590A3
:101400000598006842F20002C4F202029042039181
:1014100009D0FFE70598006842F20011C4F202010A
:10142000884209D1FFE742F20830C4F202000068A6
:1014300010F4403F09D129E046F20830C5F6020019
:10144000006810F4403F21D0FFE709F0E9F804906C
:1014500005984068B0F5803F02900AD0FFE70298F7
:10146000B0F5003F05D0FFE70298B0F5403F07D048
:101470000AE00598C0880499B1FBF0F0049004E0FC
:1014800004988008049000E0FFE75FE04FF400203C
:10149000002106F09DFF049005984068B0F5802F6C
:1014A000019032D0FFE70198B0F5002F2DD0FFE773
:1014B0000198B0F5402F28D0FFE70198B0F5801FC4
:1014C00023D0FFE70198B0F5A01F1ED0FFE70198D9
:1014D000B0F5C01F19D0FFE70198B0F5E01F1FD08D
:1014E000FFE70198B0F5001F1ED0FFE70198B0F5A7
:1014F000101F1DD0FFE70198B0F5201F1CD0FFE79B
:101500000198B0F5301F1BD01EE00598406847F6E3
:10151000FE7101EA50400499B1FBF0F0049014E030
:1015200004980009049010E00498400904900CE02D
:1015300004988009049008E00498C009049004E02D
:101540000498000A049000E0FFE7FFE706F048F97E
:1015500041F2030E704517D8FFE7049842F6015197
:10156000C0F23111884207D3FFE70598006881680F
:1015700041F48071816006E005980068816821F47B
:1015800080718160FFE743E004984008049004986C
:1015900045F61061C0F25F01884209D8FFE705985F
:1015A0000068806820F440700599096888602EE022
:1015B00004984BF62041C0F2BE0188420AD8FFE7EA
:1015C000059800688068012161F309200599096880
:1015D00088601BE0049847F64001C0F27D11884204
:1015E0000AD8FFE7059800688068022161F30920A6
:1015F00005990968886008E005980068806840F4EB
:101600004070059909688860FFE7FFE7FFE7FFE79B
:1016100006B080BD0000000080B58CB00A460346CD
:101620000A90099100200790099806900A9800688E
:10163000029201930BF00CFC04900A9800680BF0E6
:10164000ABFB03900498002805D1FFE7039800281E
:1016500000F0AE80FFE70A980068C06810F0007FD5
:1016600036D0FFE70A98407D012831D1FFE70A987C
:10167000007D01282CD1FFE701200690FFE70A98A2
:101680000068006800F040000021B1EB901F1AD103
:10169000FFE707984DF60041C0F20C0188420ED3D7
:1016A000FFE70A98416D41F0100141650A98816D8C
:1016B00041F00101816501208DF82F007CE0079841
:1016C00001300790DBE70A98006840210160FFE7DE
:1016D0000698022815D0FFE70A9800680BF0B8FBBF
:1016E00000280DD0FFE70A9800680BF081FB002866
:1016F00005D1FFE70A9800680BF022FCFFE7FFE73F
:10170000FFE70698012815D0FFE70A9800680BF05C
:1017100043FB00280DD0FFE70A9800680BF068FB38
:10172000002805D1FFE70A9800680BF041FBFFE7AE
:10173000FFE7FFE706980228009007D0FFE7009830
:10174000032806D1FFE70C20059005E0082005904E
:1017500002E004200590FFE706F04AF80890FFE752
:101760000A98006880680599084220D0FFE706F0D3
:101770003FF8DDF820E0A0EB0E00062816D3FFE7C7
:101780000A9800688068059908420ED0FFE70A9819
:10179000416D41F0100141650A98816D41F00101F0
:1017A000816501208DF82F0006E0FFE7D8E7FFE70D
:1017B00000208DF82F00FFE79DF82F000CB080BDB2
:1017C00080B584B0014603900398806B0290029824
:1017D000406D10F0500F01914CD1FFE70298416D20
:1017E00041F40071416502980068006810F0080F2C
:1017F00022D0FFE7029800680BF042FB00281AD0C5
:10180000FFE702980068C06810F4005F12D1FFE79C
:101810000298416D21F4807141650298406D10F489
:10182000805F06D1FFE70298416D41F001014165FB
:10183000FFE7FFE7FFE719E002980068C06810F0D3
:10184000030F12D1FFE70298416D21F480714165C9
:101850000298406D10F4805F06D1FFE70298416D59
:1018600041F001014165FFE7FFE7FFE7029801F062
:101870002FFF13E00298406D10F0100F04D0FFE727
:10188000029801F035FF08E00298C06CC06C039923
:101890000090084600998847FFE7FFE704B080BD45
:1018A00080B584B0014603900398806B0290029843
:1018B000426D42F0400242650298826D42F004029D
:1018C00082650298019101F013FF04B080BD000011
:1018D00080B584B0014603900398806B0290029813
:1018E000019101F0FDFE04B080BD00000000000089
:1018F00080B586B0014604900498006801910BF011
:1019000077FA0290049800680BF07EFA002851D014
:10191000FFE7029800284DD1FFE70498006880682F
:1019200000F00D0001280BD1FFE7049800680BF0D0
:10193000CFF9049800684FF0030EC0F800E00DE006
:101940000498416D41F0100141650498816D41F0AA
:101950000101816501208DF817002FE005F048FF97
:101960000390FFE704980068806810F0010F20D012
:10197000FFE705F03DFFDDF80CE0A0EB0E000328CB
:1019800016D3FFE704980068806810F0010F0ED0AE
:10199000FFE70498416D41F0100141650498816DA5
:1019A00041F00101816501208DF8170006E0FFE795
:1019B000D8E7FFE700208DF81700FFE79DF8170034
:1019C00006B080BD0000000080B588B001460690DA
:1019D0000698006803910BF017FA002840F09B80EE
:1019E000FFE70698006880683F21C8F200010842BE
:1019F0000ED0FFE70698416D41F010014165069851
:101A0000816D41F00101816501208DF81F0086E0A4
:101A1000069800680BF080F905F0EAFE059006983C
:101A200000684FF0010E42F20001C4F20201884248
:101A3000CDF808E00CD0FFE7069800684DF600717D
:101A4000CBF6FD710844B0FA80F040090290FFE740
:101A50000298C00746F20031C5F6020100281CBFFB
:101A600042F20031C4F2020108460BF089F90490F9
:101A70000698006842F20011C4F20201884206D1C1
:101A8000FFE742F20000C4F20200019003E0069872
:101A900000680190FFE7019806990968884204D020
:101AA000FFE70498002835D1FFE7FFE706980068B4
:101AB000006810F0010F2CD1FFE7069800680BF0CA
:101AC000A3F9002805D1FFE7069800680BF024F978
:101AD000FFE705F08DFEDDF814E0A0EB0E00032813
:101AE00016D3FFE706980068006810F0010F0ED1CA
:101AF000FFE70698416D41F0100141650698816D40
:101B000041F00101816501208DF81F0007E0FFE72A
:101B1000CCE7FFE7FFE700208DF81F00FFE79DF807
:101B20001F0008B080BD000080B588B040F23210C0
:101B3000C2F202400078002801D1FFE75CE040F2E9
:101B40003210C2F2024000210170FFF7DDFB40F2CB
:101B50009810C2F2024002F0B7F940F20001C2F25E
:101B60000041079144F2080106910699012903906A
:101B700020DBFFE70698079901F01F010844059054
:101B800007980490BFF34F8FFFE704984EF65C71FF
:101B9000CEF20001086004982030049005982038A7
:101BA000059005980028F0DCFFE7BFF34F8FBFF3E7
:101BB0006F8FFFE740F29040C2F20240029000F0C7
:101BC000CBFD02980CF01CF902980DF00DFD40F2CF
:101BD0000000C2F2004042F20401FFF759FB40F25C
:101BE0009810C2F2024044F20801C2F20041802281
:101BF00002F06EF80190FFE708B080BD0000000021
:101C0000FFE7FEE70000000080B540F2FC10C2F2E2
:101C1000024003F005FA80BD80B540F2EC20C2F22C
:101C2000024003F0FDF980BD80B540F27420C2F29D
:101C3000024003F0F5F980BD85B001460490049898
:101C4000006801221023C4F202039842029101921B
:101C500000F0A380FFE70498006801212822C4F265
:101C600002029042019100F09880FFE7049800681A
:101C700001214022C4F202029042019100F08D80C5
:101C8000FFE70498006801215822C4F20202904242
:101C9000019100F08280FFE7049800680121702222
:101CA000C4F202029042019177D0FFE704980068E5
:101CB00001218822C4F20202904201916DD0FFE717
:101CC000049800680121A022C4F20202904201910E
:101CD00063D0FFE7049800680121B822C4F2020231
:101CE0009042019159D0FFE704980068012140F229
:101CF0001042C4F20202904201914ED0FFE70498D4
:101D00000068012140F22842C4F20202904201918F
:101D100043D0FFE704980068012140F24042C4F23A
:101D200002029042019138D0FFE704980068012137
:101D300040F25842C4F20202904201912DD0FFE7D6
:101D400004980068012140F27042C4F202029042FD
:101D5000019122D0FFE704980068012140F28842F7
:101D6000C4F202029042019117D0FFE70498006884
:101D7000012140F2A042C4F20202904201910CD033
:101D8000FFE7049800684FF64831CBF6FD71084430
:101D9000B0FA80F040090190FFE70198C0070028E1
:101DA00029D0FFE70498007810384AF6AB21CAF62C
:101DB000AA21A0FB010109090391039901F0070180
:101DC00042F25812C0F60102515C049AD16503999F
:101DD0000429009007D3FFE704980168042262F306
:101DE0000901816506E00498016840F2FF329143E1
:101DF0008165FFE705E00498016821F0FF01816536
:101E0000FFE70498806D05B07047000000000000F7
:101E100087B001460690069800680490069800680E
:101E2000012245F20843C5F602039842039102924B
:101E30004ED0FFE706980068012145F21C42C5F626
:101E400002029042029143D0FFE706980068012108
:101E500045F23042C5F602029042029138D0FFE7C7
:101E600006980068012145F24442C5F602029042FC
:101E700002912DD0FFE706980068012145F25842F3
:101E8000C5F602029042029122D0FFE70698006850
:101E9000012145F26C42C5F602029042029117D030
:101EA000FFE706980068012145F28042C5F602026C
:101EB000904202910CD0FFE7069800684AF66C3118
:101EC000CAF2FD710844B0FA80F040090290FFE7C1
:101ED0000298C007002824D0FFE706980078083849
:101EE0004CF6CD41CCF6CC41A0FB0101090905918E
:101EF000059945F60002C5F6020202EB8101069A39
:101F00001166069945F68002C5F602024A660599F1
:101F100001F01F01012202FA01F1069A9166019077
:101F200037E00698007810384AF6AB21CAF6AA21A5
:101F3000A0FB010109090591049940F2B842C4F2DD
:101F40000202914200900CD8FFE7049840F2104141
:101F5000C4F20201884204D3FFE7059808300590D7
:101F6000FFE7059840F60001C4F2020101EB800092
:101F700006990866069840F68001C4F2020141669F
:101F8000059800F01F00012101FA00F0069988660B
:101F9000FFE707B07047000084B001460390039844
:101FA0000079029002980028019100F08C80FFE7F0
:101FB0000298082800F28780FFE703980068012153
:101FC00045F20842C5F60202904200914ED0FFE76A
:101FD00003980068012145F21C42C5F602029042B6
:101FE000009143D0FFE703980068012145F2304299
:101FF000C5F602029042009138D0FFE703980068CE
:10200000012145F24442C5F60202904200912DD0D2
:10201000FFE703980068012145F25842C5F6020225
:102020009042009122D0FFE703980068012145F219
:102030006C42C5F602029042009117D0FFE7039868
:102040000068012145F28042C5F6020290420091EB
:102050000CD0FFE7039800684AF66C31CAF2FD71B4
:102060000844B0FA80F040090090FFE70098C007EC
:10207000002810D0FFE7029845F6FC01C5F60201E2
:1020800001EB80000399C866039845F64011C5F638
:10209000020101670FE0029840F6FC01C4F2020160
:1020A00001EB80000399C866039840F64011C4F222
:1020B00002010167FFE702980138012101FA00F0EF
:1020C00003994867FFE704B0704700000000000074
:1020D00086B00146059000208DF8130005988069B0
:1020E0000028039123D1FFE70598806A0328029016
:1020F0001BD80299DFE801F0020D02180598C06AAA
:10210000C001002804D5FFE701208DF81300FFE788
:102110000CE00598C06AB0F1C07F04D1FFE7012050
:102120008DF81300FFE701E000E0FFE747E00598C6
:102130008069B0F5005F26D1FFE70598806A032823
:1021400001901ED80199DFE801F00206021101207A
:102150008DF8130016E00598C06AC001002804D568
:10216000FFE701208DF81300FFE70BE00598C06A38
:10217000B0F1C07F04D1FFE701208DF81300FFE725
:1021800000E0FFE71AE00598806A0328009004D376
:10219000FFE70098032804D00EE001208DF813001B
:1021A0000BE00598C06AC001002804D5FFE70120B4
:1021B0008DF81300FFE700E0FFE7FFE7FFE79DF87A
:1021C000130006B070470000B0B58DB09C4696462F
:1021D0000C4605460C900B910A9209930C98806D61
:1021E00008900C98806D07900C98006801211022CF
:1021F000C4F202029042CDF818C0CDF814E0049465
:102200000395029100F00381FFE70C98006801211B
:102210002822C4F202029042029100F0F880FFE707
:102220000C98006801214022C4F2020290420291FF
:1022300000F0ED80FFE70C98006801215822C4F2FD
:1022400002029042029100F0E280FFE70C980068E1
:1022500001217022C4F202029042029100F0D78064
:10226000FFE70C98006801218822C4F20202904224
:10227000029100F0CC80FFE70C9800680121A022B9
:10228000C4F202029042029100F0C180FFE70C9874
:1022900000680121B822C4F202029042029100F0CB
:1022A000B680FFE70C980068012140F21042C4F2AA
:1022B00002029042029100F0AA80FFE70C980068A9
:1022C000012140F22842C4F202029042029100F041
:1022D0009E80FFE70C980068012140F24042C4F262
:1022E00002029042029100F09280FFE70C98006891
:1022F000012140F25842C4F202029042029100F0E1
:102300008680FFE70C980068012140F27042C4F219
:102310000202904202917AD0FFE70C9800680121F6
:1023200040F28842C4F20202904202916FD0FFE76D
:102330000C980068012140F2A042C4F202029042CF
:10234000029164D0FFE70C980068012140F2B84286
:10235000C4F202029042029159D0FFE70C98006843
:10236000012145F20842C5F60202904202914ED088
:10237000FFE70C980068012145F21C42C5F60202F5
:102380009042029143D0FFE70C980068012145F28A
:102390003042C5F602029042029138D0FFE70C9815
:1023A0000068012145F24442C5F6020290420291C2
:1023B0002DD0FFE70C980068012145F25842C5F680
:1023C00002029042029122D0FFE70C98006801219E
:1023D00045F26C42C5F602029042029117D0FFE727
:1023E0000C980068012145F28042C5F60202904235
:1023F00002910CD0FFE70C9800684AF66C31CAF2E3
:10240000FD710844B0FA80F040090290FFE702989D
:10241000C00700280FD0FFE70C98416E806E48601F
:102420000C98C06E002805D0FFE70C98016F406F34
:102430004860FFE7FFE70C98006801211022C4F212
:1024400002029042019100F0A380FFE70C9800681F
:1024500001212822C4F202029042019100F09880EA
:10246000FFE70C98006801214022C4F2020290426A
:10247000019100F08D80FFE70C980068012158223F
:10248000C4F202029042019100F08280FFE70C98B2
:10249000006801217022C4F202029042019177D0BB
:1024A000FFE70C98006801218822C4F202029042E2
:1024B00001916DD0FFE70C9800680121A022C4F2C1
:1024C00002029042019163D0FFE70C98006801215D
:1024D000B822C4F202029042019159D0FFE70C9851
:1024E0000068012140F21042C4F2020290420191C0
:1024F0004ED0FFE70C980068012140F22842C4F258
:1025000002029042019143D0FFE70C98006801213C
:1025100040F24042C4F202029042019138D0FFE7FB
:102520000C980068012140F25842C4F20202904225
:1025300001912DD0FFE70C980068012140F2704214
:10254000C4F202029042019122D0FFE70C98006889
:10255000012140F28842C4F202029042019117D058
:10256000FFE70C980068012140F2A042C4F2020289
:10257000904201910CD0FFE70C9800684FF648316B
:10258000CBF6FD710844B0FA80F040090190FFE7F6
:102590000198C00700282BD0FFE70C98C06D00F011
:1025A0001F003F2101FA00F0089988600C9800682C
:1025B000016821F48021016009980C99096848603C
:1025C0000C988068402809D1FFE70A980C9909689F
:1025D00088600B980C990968C86008E00B980C9902
:1025E000096888600A980C990968C860FFE784E068
:1025F0000C980068012145F20842C5F6020290429B
:1026000000914ED0FFE70C980068012145F21C4272
:10261000C5F602029042009143D0FFE70C98006893
:10262000012145F23042C5F602029042009138D0B5
:10263000FFE70C980068012145F24442C5F602020A
:10264000904200912DD0FFE70C980068012145F2DF
:102650005842C5F602029042009122D0FFE70C9842
:102660000068012145F26C42C5F6020290420091D9
:1026700017D0FFE70C980068012145F28042C5F6AB
:102680000202904200910CD0FFE70C9800684AF6D5
:102690006C31CAF2FD710844B0FA80F04009009034
:1026A000FFE70098C007002825D0FFE70C98C06D11
:1026B00000F01F00012101FA00F007994860099815
:1026C0000C99096848600C988068402809D1FFE798
:1026D0000A980C99096888600B980C990968C86079
:1026E00008E00B980C99096888600A980C990968A9
:1026F000C860FFE700E0FFE7FFE70DB0B0BD0000F6
:10270000704700000000000080B582B0EFF3108039
:1027100072B60190FFE749F25A50C0F6040049F240
:102720005451C0F604010AF06BF9F4E70000000010
:1027300044F60C00C5F60200016841F00201016098
:10274000FFE744F60400C5F60200006810F4005FDD
:1027500001D1FFE7F5E7704780B588B001460790E3
:1027600040F20000C2F2004044F20812C2F20042FD
:1027700005900491114603920EF076FC42F204019A
:10278000059800F089F9079880ED060A4CF20810C8
:10279000C2F2004003990290084602990EF0C4F874
:1027A000B7EE000A02980EF0CBFC40F22C10C2F2F9
:1027B000024002990190084601990EF029FA44F26C
:1027C0000800C2F20040802100F012F98DED060AE7
:1027D0009DED060A079A0298019900F009F844F263
:1027E00008010598FEF7DAF908B080BD0000000086
:1027F00080B592B01346B0EE401A8C4686461190D2
:1028000010918DED0F0A0E9210980088ADF83600E9
:1028100010984088ADF834001198BDF83610059333
:102820008DED041ACDF80CC0CDF808E00BF060FA7D
:102830008DF833001198BDF834100BF059FA8DF86B
:1028400032009DF83300002810D0FFE7BDF83600B5
:10285000ADF82E00BDF83400ADF830009DF833001F
:102860000E9908750E980021017242E09DF8320021
:10287000002810D0FFE7BDF83400ADF82E00BDF8F9
:102880003600ADF830009DF832000E9908750E98AC
:10289000002101722CE0119800F58030BDF836104F
:1028A00000EB810191ED000ABDF8341000EB8100CE
:1028B00090ED001AB4EEC10AF1EE10FA09DDFFE75F
:1028C000BDF83600ADF82E00BDF83400ADF830008C
:1028D00008E0BDF83400ADF82E00BDF83600ADF8C4
:1028E0003000FFE70E98002101750E980172FFE796
:1028F000FFE7BDF8300000EB800000EE100AB8EEF4
:10290000C00A0E9880ED000ABDF82E0000EB800092
:1029100000EE100AB8EEC00A0E9880ED030A0F9878
:102920000A900E9890ED060A20EE000A8DED090A35
:102930009DED0A0A20EE000A8DED080A9DED090AB8
:102940009DED081A30EE410A8DED070A9DED070A4C
:10295000B5EEC00AF1EE10FA07DDFFE79DED070ABC
:102960000EF0A6FE8DED010A04E09FED1D0A8DED2F
:10297000010AFFE79DED010A8DED060A9DED060AAD
:102980009FED181A20EE010A0E9880ED010A0E98AC
:10299000007D012808D1FFE79DED0A0A30EE000A0C
:1029A0000E9880ED040A19E00E98007D02280AD1E5
:1029B000FFE79DED0A0A9FED0C1A20EE010A0E9822
:1029C00080ED040A09E09DED0A0A9FED061A20EE4B
:1029D000010A0E9880ED040AFFE7FFE712B080BD00
:1029E00000000000F3043540D5B35D400000000056
:1029F00080B58AB00A4603460890ADF81E10BDF8AF
:102A00001E0000280192009303D1FFE700200990E7
:102A10003EE043F20640C3F65300069000200590C6
:102A20000490ADF80E00FFE7BDF80E00BDF81E10D3
:102A300088421EDAFFE70898BDF80E1030F8110042
:102A400000EE100AB8EE400A9DED061A20EE010ACB
:102A50008DED020A9DED020A9DED041A00EE001AAA
:102A60008DED041AFFE7BDF80E000130ADF80E0041
:102A7000DAE79DED040ABDF81E0001EE100AB8EE7B
:102A8000411A80EE010A0EF013FE8DED090AFFE7F0
:102A90009DED090A0AB080BD80B58AB00A4603469A
:102AA0000890ADF81E10BDF81E000028019200939A
:102AB00003D1FFE70020099049E0002006900021A3
:102AC000C3F6203105919DED050A20EE000A8DED3B
:102AD000040AADF80E00FFE7BDF80E00BDF81E10A9
:102AE000884221DAFFE70898BDF80E1000EB41009C
:102AF00000896FF31F3000EE100AB8EEC00A9FED98
:102B0000161A30EE010A8DED020A9DED020A9DEDC6
:102B1000061A00EE001A8DED061AFFE7BDF80E004A
:102B20000130ADF80E00D7E79DED060A9DED041AC1
:102B300020EE010ABDF81E0001EE100AB8EE411A9F
:102B400080EE010A0EF0B4FD8DED090AFFE79DED60
:102B5000090A0AB080BD00BF000000C500000000E7
:102B600080B5A8B00A4603462690259100208DF82E
:102B700093002598006800280892079301D0FFE78A
:102B8000FFE7FFE7269890F85000012804D1FFE7FF
:102B900002208DF89F0034E12698012180F8501022
:102BA000FFE7FFE700201F9020902698006842F280
:102BB0000001C4F20201884206D1FFE742F2001090
:102BC000C4F202000A9002E000200A90FFE70A988F
:102BD00000280FD1FFE72698416D41F020014165A3
:102BE000FFE72698002180F85010FFE701208DF8BC
:102BF0009F0006E10A980AF037F9099026980068C4
:102C00000AF032F9002840F0E880FFE70998002830
:102C100040F0E380FFE726980068012142F20002BD
:102C2000C4F20202904206910CD0FFE72698006899
:102C30004DF60071CBF6FD710844B0FA80F0400902
:102C40000690FFE70698C00746F20031C5F602017C
:102C500000281CBF42F20031C4F2020123912598E2
:102C60000068002861D0FFE72398806820F4404086
:102C700025994968084323998860269800680121AE
:102C800042F20002C4F20202904205910CD0FFE72A
:102C9000269800684DF60071CBF6FD710844B0FA35
:102CA00080F040090590FFE70598C00746F2003123
:102CB000C5F6020100281CBF42F20031C4F2020135
:102CC00042F20030C4F20200814214D1FFE742F226
:102CD0000000C4F202000AF0A3F842F2001EC4F29F
:102CE000020E049070460AF09BF8DDF810E040EA0E
:102CF0000E00039007E046F20000C5F602000AF05D
:102D00008FF80390FFE7039800280DD1FFE7239881
:102D1000806840F61F71884325990A6889681143C5
:102D2000084323998860FFE756E02398816821F4DF
:102D30004041816026980068012142F20002C4F2FD
:102D40000202904202910CD0FFE7269800684DF6EF
:102D50000071CBF6FD710844B0FA80F04009029092
:102D6000FFE70298C00746F20031C5F602010028CD
:102D70001CBF42F20031C4F2020142F20030C4F240
:102D80000200814214D1FFE742F20000C4F20200C7
:102D90000AF046F842F2001EC4F2020E019070469C
:102DA0000AF03EF8DDF804E040EA0E00009007E08B
:102DB00046F20000C5F602000AF032F80090FFE784
:102DC0000098002807D1FFE72398816840F61F721A
:102DD00091438160FFE7FFE708E02698416D41F0ED
:102DE0002001416501208DF89300FFE7FFE7269859
:102DF000002180F85010FFE79DF893008DF89F00A8
:102E0000FFE79DF89F0028B080BD00000000000093
:102E100080B5B6B00A4603463290319100208DF855
:102E2000C3002D90329890F8380001282A922993F7
:102E300001D1FFE700E0FFE73198C0680021C4F24C
:102E4000FF71884201D0FFE71EE03298006842F22D
:102E50000001C4F20201884201D1FFE7FFE7329886
:102E6000006842F20011C4F20201884201D1FFE77A
:102E7000FFE73298006846F20001C5F60201884279
:102E800001D1FFE7FFE7FFE7FFE7329890F8500036
:102E9000012805D1FFE702208DF8CF0000F014BC17
:102EA0003298012180F85010FFE7FFE73298006860
:102EB00009F0CEFF002840F0F383FFE73198C07897
:102EC000000600282FD4FFE731980068000300288F
:102ED00006D1FFE731980068C0F38460289016E0BF
:102EE0003198006890FAA0F034903498002804D10A
:102EF000FFE720208DF8D70005E03498B0FA80F085
:102F00008DF8D700FFE79DF8D7002890FFE72898B5
:102F100000F01F00012101FA00F032990968CA6926
:102F20001043C861FFE73298006831990A68496820
:102F300009F0CAFF3298006809F08AFF2C90329895
:102F4000006809F029FF2B902C98002840F0C080E1
:102F5000FFE72B98002840F0BB80FFE7329800681D
:102F600031990A68896827911146279A0AF030F842
:102F700041F20000C5F60040006800F07040B0F17A
:102F8000805F0BD1FFE73198406932990968C968C1
:102F900001F01C014908884026901FE03298006823
:102FA000C06810F0100F0BD1FFE7319840693299DB
:102FB0000968C96801F01C014908884025900AE0A9
:102FC0003198406932990968C96801F010014908CF
:102FD00088402590FFE725982690FFE726982F90B8
:102FE00031980069042829D0FFE7329800683199A8
:102FF0000A6809692F9B0AF083F8329800683199B2
:103000000A69497E00230129194608BF4FF0004193
:1030100024911146249A23930AF096F83298006876
:1030200031990A69097E0129239908BF4FF400618B
:1030300022911146229A0AF047F848E03298006837
:10304000006E00F0F84031990968B0EB816F07D14C
:10305000FFE732980068016E21F000410166FFE74A
:1030600032980068406E00F0F84031990968B0EB82
:10307000816F07D1FFE732980068416E21F000416F
:103080004166FFE732980068806E00F0F8403199A1
:103090000968B0EB816F07D1FFE732980068816E55
:1030A00021F000418166FFE732980068C06E00F0B1
:1030B000F84031990968B0EB816F07D1FFE732988A
:1030C0000068C16E21F00041C166FFE7FFE7FFE73E
:1030D0003298006809F098FE002840F0E082FFE78F
:1030E0003298006831990A68C96821911146219A7D
:1030F00009F096FF3198C0680021C4F2FF71884240
:1031000040F05A81FFE73298006842F20001C4F2B1
:1031100002018842209040F0A480FFE731980068C7
:103120000221C0F23041884203D1FFE701201F9005
:1031300094E0319800680421C0F66001884205D10E
:10314000FFE74020C1F620101E9084E0319800680F
:103150000821C0F69041884205D1FFE78020C1F6E2
:1031600050501D9074E0319800681021C1F2C001E8
:10317000884206D1FFE740F20010C2F280101C9096
:1031800063E0319800682021C1F2F041884206D105
:10319000FFE740F20020C2F2B0501B9052E031989D
:1031A000006840F20041C2F60021884206D1FFE7E4
:1031B00040F60000C2F630601A9040E03198006896
:1031C00040F60001C2F63061884206D1FFE741F2C5
:1031D0000000C3F2602019902EE03198006841F29F
:1031E0000001C3F26021884206D1FFE742F20000ED
:1031F000C3F2906018901CE0319800680021C4F27E
:103200002131884205D1FFE70020C4F252701790A7
:103210000CE0319800680021C4F684310022884215
:1032200004BF0022C4F6B8721792FFE717981890EF
:10323000FFE718981990FFE719981A90FFE71A9876
:103240001B90FFE71B981C90FFE71C981D90FFE761
:103250001D981E90FFE71E981F90FFE71F9816907D
:10326000A2E03298006842F20011C4F202018842E2
:1032700040F09480FFE7319800680221C0F23041AD
:10328000884203D1FFE70120159084E0319800685F
:103290000421C0F66001884205D1FFE74020C1F655
:1032A0002010149074E0319800680821C0F6904115
:1032B000884205D1FFE78020C1F65050139064E0AA
:1032C000319800681021C1F2C001884206D1FFE7A1
:1032D00040F20010C2F28010129053E03198006862
:1032E0002021C1F2F041884206D1FFE740F20020E0
:1032F000C2F2B050119042E03198006840F20041B3
:10330000C2F60021884206D1FFE740F60000C2F66F
:103310003060109030E03198006840F60001C2F64D
:103320003061884206D1FFE741F20000C3F260201D
:103330000F901EE03198006841F20001C3F2602155
:10334000884206D1FFE742F20000C3F290600E907F
:103350000CE0319800680021C4F6843100228842D4
:1033600004BF0022C4F6B8720E92FFE70E980F90C9
:10337000FFE70F981090FFE710981190FFE7119862
:103380001290FFE712981390FFE713981490FFE74D
:1033900014981590FFE715980D9002E000200D900D
:1033A000FFE70D981690FFE7169820990C900846B5
:1033B0000C9909F0D9FDFFE73198C0780006002884
:1033C00040F16C81FFE732980068012142F200026F
:1033D000C4F2020290420B910CD0FFE732980068D1
:1033E0004DF60071CBF6FD710844B0FA80F040094B
:1033F0000B90FFE70B98C00746F20031C5F60201BB
:1034000000281CBF42F20031C4F20201084609F054
:10341000ABFC2E90329800684FF0010142F2000E92
:10342000C4F2020E70450A910CD0FFE73298006892
:103430004DF60071CBF6FD710844B0FA80F04009FA
:103440000A90FFE70A98C00746F20031C5F602016C
:1034500000281CBF42F20031C4F2020142F20030E7
:10346000C4F20200814214D1FFE742F20000C4F22C
:10347000020009F0C9FC42F2001EC4F2020E0990DB
:10348000704609F0C1FCDDF824E040EA0E00089027
:1034900007E046F20000C5F6020009F0B5FC08900E
:1034A000FFE70898002840F0EF80FFE731980068B8
:1034B0000021CCF6843188425AD1FFE79DF8BA004A
:1034C0000006002854D4FFE73298006846F2000155
:1034D000C5F6020188424AD1FFE73298006801210F
:1034E00042F20002C4F20202904207910CD0FFE7C0
:1034F000329800684DF60071CBF6FD710844B0FAC1
:1035000080F040090790FFE70798C00746F20031B6
:10351000C5F6020100281CBF42F20031C4F20201CC
:103520002E9840F4000006900846069909F0B8FD70
:1035300040F20C10C2F2024000684FEA901042F6CE
:103540006351C0F23E51A0FB01014FEA91114FF0CF
:10355000020E0EEB41012D910590FFE72D980028FA
:1035600004D0FFE72D9801382D90F7E7FFE78AE0B8
:10357000319800680021CCF2527188423CD1FFE7BB
:103580009DF8BB00C007002836D1FFE732980068DD
:1035900046F20001C5F6020188422CD1FFE73298BD
:1035A0000068012142F20002C4F20202904204913A
:1035B0000CD0FFE7329800684DF60071CBF6FD7134
:1035C0000844B0FA80F040090490FFE70498C0076F
:1035D00046F20031C5F6020100281CBF42F200315C
:1035E000C4F202012E9840F08070039008460399BF
:1035F00009F056FDFFE745E0319800680021CCF660
:10360000B87188423CD1FFE79DF8BA004006002817
:1036100036D4FFE73298006846F20001C5F6020191
:1036200088422CD1FFE732980068012142F2000263
:10363000C4F20202904202910CD0FFE73298006877
:103640004DF60071CBF6FD710844B0FA80F04009E8
:103650000290FFE70298C00746F20031C5F602016A
:1036600000281CBF42F20031C4F202012E9840F43F
:10367000800001900846019909F012FDFFE700E083
:10368000FFE7FFE7FFE708E03298416D41F02001D6
:10369000416501208DF8C300FFE7FFE7FFE708E081
:1036A0003298416D41F02001416501208DF8C30041
:1036B000FFE7FFE73298002180F85010FFE79DF800
:1036C000C3008DF8CF00FFE79DF8CF0036B080BD76
:1036D00082B001460190009102B0704700000000E6
:1036E00082B001460190009102B0704700000000D6
:1036F00082B001460190009102B0704700000000C6
:1037000010B590B001460E9000208DF837000A9059
:103710000E980028079104D1FFE701208DF83F00A3
:10372000E2E10E98C068002807D0FFE70E98007FFE
:10373000012801D1FFE7FFE7FFE70E98406D002861
:103740000CD1FFE70E9800F0D3F90E984FF0000E61
:10375000C0F858E00E9880F850E0FFE70E98006837
:1037600009F03AFB002805D0FFE70E98006809F041
:10377000C3FAFFE70E98006809F05EFB00281FD12E
:10378000FFE70E98006809F0DBFA40F20C10C2F275
:1037900002400068800942F6635EC0F23E5EA0FB14
:1037A0000E0E012101EB9E110A910690FFE70A9887
:1037B000002804D0FFE70A9801380A90F7E7FFE7EE
:1037C0000E98006809F038FB00280ED1FFE70E982C
:1037D000416D41F0100141650E98816D41F001018C
:1037E000816501208DF83700FFE70E98006809F029
:1037F0002FFB0B900E98406D10F0100F40F066817B
:10380000FFE70B98002840F06181FFE70E98406DBC
:1038100040F0020020F480700E9948650E98006810
:1038200009F0F2FA002876D1FFE70E98006801212E
:1038300042F20002C4F20202904205910CD0FFE76E
:103840000E9800684DF60071CBF6FD710844B0FA91
:1038500080F040090590FFE70598C00746F2003167
:10386000C5F6020100281CBF42F20031C4F2020179
:1038700042F20030C4F20200814214D1FFE742F26A
:103880000000C4F2020009F0BFFA42F2001EC4F2C6
:10389000020E0490704609F0B7FADDF810E040EA35
:1038A0000E00039007E046F20000C5F6020009F0A2
:1038B000ABFA0390FFE7039800282BD1FFE70E989F
:1038C0000068012142F20002C4F202029042029119
:1038D0000CD0FFE70E9800684DF60071CBF6FD7135
:1038E0000844B0FA80F040090290FFE70298C00750
:1038F00046F20031C5F6020100281CBF42F2003139
:10390000C4F202010E98406801900846019909F03E
:10391000B3FBFFE7FFE703F063FF41F2040E7045DE
:1039200013D3FFE70E98806810280ED1FFE70E989A
:10393000417D026B42EA413182681143007F41EAD6
:10394000004040F00C000C900BE00E98417D026BA3
:1039500042EA413182681143007F41EA00400C9005
:10396000FFE70E98007F01280BD1FFE70E98006A51
:103970000021CFF6FE7101EB40400C9908430C90FA
:10398000FFE70E98406A00280AD0FFE70E98416AC8
:10399000806A01F4787108430C9908430C90FFE7A2
:1039A0000E980068C0684CF20301CFF6F071084031
:1039B0000C9908430E990968C8600E98006809F0D0
:1039C00047FA09900E98006809F0E6F908900998FE
:1039D00000285AD1FFE70898002856D1FFE70E9833
:1039E000017DC06A40EA81300C900E980068C06882
:1039F00044F2030188430C9908430E990968C86092
:103A00000E9890F8380001282AD1FFE70E98406AF6
:103A1000002805D0FFE70E98806A002801D1FFE753
:103A2000FFE70E98006800694FF61E01CFF60041CF
:103A300008400E990A68CB6BD1F840C0D1F844E039
:103A40000024CFF6FF7404EB034343EA0C0343EA7C
:103A50000E03896C1943084340F00100106106E031
:103A60000E980068016921F001010161FFE70E98DD
:103A70000068006920F070400E990A68496B08439D
:103A800010610E98FDF7B8FCFFE70E98C06801289A
:103A90000CD1FFE70E980068006B20F00F000E9924
:103AA0000A68896901390843106306E00E980068C6
:103AB000016B21F00F010163FFE70E98406D40F0AC
:103AC000010020F002000E99486508E00E98416D53
:103AD00041F01001416501208DF83700FFE79DF8A6
:103AE00037008DF83F00FFE79DF83F0010B010BD94
:103AF00080B592B001461190002010900F900E906A
:103B00000D900C901198006842F20002C4F202027B
:103B10009042079167D1FFE740F22810C2F20240BD
:103B20000168013101600068012811D1FFE7FFE75A
:103B300044F2D840C5F60200016841F0200101605E
:103B4000006800F020000B900B980690FFE7FFE75D
:103B5000FFE744F2E040C5F60200016841F00101D0
:103B60000160006800F001000A900A980590FFE7E4
:103B700040200C9003200D9000200E900021C5F6EF
:103B800002010CAA04900846114603F0F9FB40F22A
:103B9000FC10C2F202401021C4F2020101600921AE
:103BA000416004998160C1604FF4806202614FF40A
:103BB000006242614FF400528261C1610162416260
:103BC00002F04EFB002803D0FFE7FEF79DFDFFE764
:103BD000FFE7119840F2FC11C2F20241C164119852
:103BE0008863FFE772E01198006842F20011C4F2A6
:103BF0000201884269D1FFE740F22810C2F2024078
:103C00000168013101600068012811D1FFE7FFE779
:103C100044F2D840C5F60200016841F0200101607D
:103C2000006800F02000099009980390FFE7FFE783
:103C3000FFE744F2E040C5F60200016841F00101EF
:103C40000160006800F00100089008980290FFE70A
:103C500080200C9003200D9000200E900021C5F6CE
:103C600002010CAA01900846114603F089FB40F2BC
:103C70007420C2F202404021C4F2020101600A2114
:103C8000416001998160C1604FF4806202614FF42C
:103C9000006242614FF4005282614FF48072C2614F
:103CA0000162416202F0DCFA002803D0FFE7FEF770
:103CB0002BFDFFE7FFE7119840F27421C2F20241A9
:103CC000C16411988863FFE7FFE7FFE712B080BD8A
:103CD00080B58CB013468C4686460A9009910892AE
:103CE0000A980068012142F20002C4F202029042E6
:103CF0000593CDF810C0CDF80CE002910CD0FFE791
:103D00000A9800684DF60071CBF6FD710844B0FAD0
:103D100080F040090290FFE70298C00746F20031A8
:103D2000C5F6020100281CBF42F20031C4F20201B4
:103D3000084609F025F806900A98006809F088F806
:103D4000002840F0B480FFE7FFE70A9890F85000A1
:103D5000012804D1FFE702208DF82F00B0E00A9877
:103D6000012180F85010FFE7FFE70698002809D0EE
:103D7000FFE70698052805D0FFE70698092840F0D8
:103D80008B80FFE70A98FDF71FFE8DF81F009DF856
:103D90001F00002878D1FFE70A98406D40F480703A
:103DA00040F6016188430A9948650A98006842F222
:103DB0000011C4F20201884206D1FFE742F200007E
:103DC000C4F20200019003E00A9800680190FFE746
:103DD00001980A990968884204D0FFE706980028EC
:103DE00006D1FFE70A98416D21F480114165FFE794
:103DF0000A98406D10F4805F06D0FFE70A98816D45
:103E000021F00601816503E00A9800218165FFE742
:103E10000A98C06C41F2C171C0F60001C1630A98F2
:103E2000C06C41F6D101C0F6000101640A98C06C73
:103E300041F6A101C0F60001C1640A9800681C2186
:103E40000160FFE70A98002180F85010FFE70A9808
:103E50000068416841F0100141600A980168C06A39
:103E600000900846009909F01BF80A980168C06C98
:103E70004031099A089B02F0BFFE8DF81F000A9896
:103E8000006809F049F806E0FFE70A98002180F889
:103E90005010FFE7FFE709E001208DF81F00FFE762
:103EA0000A98002180F85010FFE7FFE703E00220A6
:103EB0008DF81F00FFE79DF81F008DF82F00FFE72A
:103EC0009DF82F000CB080BD80B586B001460490EF
:103ED0000291FFE7049890F85000012804D1FFE711
:103EE00002208DF8170061E00498012180F850103D
:103EF000FFE7FFE704980321FDF78EFB8DF80F0025
:103F00009DF80F00002846D1FFE704980068C068BC
:103F100020F0030004990968C8600498C06C90F808
:103F20003500022812D1FFE70498C06C00F044F875
:103F30008DF80F009DF80F00002806D0FFE70498C9
:103F4000416D41F040014165FFE7FFE704980068DB
:103F5000416821F0100141609DF80F00002806D152
:103F6000FFE70498FDF7C4FC8DF80F0004E0049807
:103F7000FDF7BEFC0190FFE79DF80F00002809D176
:103F8000FFE70498406D40F0010020F48850049948
:103F90004865FFE7FFE7FFE70498002180F850102D
:103FA000FFE79DF80F008DF81700FFE79DF8170059
:103FB00006B080BD0000000080B58EB001460C90B8
:103FC000079103F015FC08900C98002805D1FFE735
:103FD00001208DF8370000F0B8BC0C9890F835003F
:103FE00002280ED0FFE70C9880214165FFE70C986E
:103FF000002180F83410FFE701208DF8370000F031
:10400000A4BC0C98006801211022C4F20202904264
:10401000069100F0A380FFE70C9800680121282298
:10402000C4F202029042069100F09880FFE70C98DB
:10403000006801214022C4F202029042069100F081
:104040008D80FFE70C98006801215822C4F202021B
:104050009042069100F08280FFE70C9800680121F1
:104060007022C4F202029042069177D0FFE70C98CA
:10407000006801218822C4F20202904206916DD0AC
:10408000FFE70C9800680121A022C4F202029042CE
:10409000069163D0FFE70C9800680121B822C4F2B2
:1040A00002029042069159D0FFE70C980068012166
:1040B00040F21042C4F20202904206914ED0FFE755
:1040C0000C980068012140F22842C4F2020290429A
:1040D000069143D0FFE70C980068012140F240426E
:1040E000C4F202029042069138D0FFE70C980068B3
:1040F000012140F25842C4F20202904206912DD0B2
:10410000FFE70C980068012140F27042C4F20202FD
:104110009042069122D0FFE70C980068012140F2FE
:104120008842C4F202029042069117D0FFE70C9831
:104130000068012140F2A042C4F2020290420691BE
:104140000CD0FFE70C9800684FF64831CBF6FD71B4
:104150000844B0FA80F040090690FFE70698C007CF
:10416000002810D0FFE70C980068016821F01E01BC
:1041700001600C980068416921F0800141610C9850
:104180000068099009E00C980068016821F00E01B0
:1041900001600C9800680990FFE70C980068012105
:1041A0001022C4F202029042059100F00381FFE761
:1041B0000C98006801212822C4F202029042059165
:1041C00000F0F880FFE70C98006801214022C4F25B
:1041D00002029042059100F0ED80FFE70C98006824
:1041E00001215822C4F202029042059100F0E280BF
:1041F000FFE70C98006801217022C4F2020290428D
:10420000059100F0D780FFE70C9800680121882213
:10421000C4F202029042059100F0CC80FFE70C98B6
:1042200000680121A022C4F202029042059100F030
:10423000C180FFE70C9800680121B822C4F2020295
:104240009042059100F0B680FFE70C9800680121CC
:1042500040F21042C4F202029042059100F0AA809E
:10426000FFE70C980068012140F22842C4F20202E4
:104270009042059100F09E80FFE70C9800680121B4
:1042800040F24042C4F202029042059100F0928056
:10429000FFE70C980068012140F25842C4F2020284
:1042A0009042059100F08680FFE70C98006801219C
:1042B00040F27042C4F20202904205917AD0FFE7C8
:1042C0000C980068012140F28842C4F20202904238
:1042D00005916FD0FFE70C980068012140F2A042E1
:1042E000C4F202029042059164D0FFE70C98006886
:1042F000012140F2B842C4F202029042059159D025
:10430000FFE70C980068012145F20842C5F6020259
:10431000904205914ED0FFE70C980068012145F2CC
:104320001C42C5F602029042059143D0FFE70C986B
:104330000068012145F23042C5F602029042059123
:1043400038D0FFE70C980068012145F24442C5F6D9
:104350000202904205912DD0FFE70C9800680121E0
:1043600045F25842C5F602029042059122D0FFE77D
:104370000C980068012145F26C42C5F60202904299
:10438000059117D0FFE70C980068012145F28042A3
:10439000C5F60202904205910CD0FFE70C98006828
:1043A0004AF66C31CAF2FD710844B0FA80F0400957
:1043B0000590FFE70598C007002807D0FFE70C9895
:1043C000006E016821F480710160FFE70C980068BD
:1043D0001021C4F20201884200F08180FFE70C98AE
:1043E00000682821C4F20201884278D0FFE70C98C7
:1043F00000684021C4F20201884270D0FFE70C98A7
:1044000000685821C4F20201884268D0FFE70C9886
:1044100000687021C4F20201884260D0FFE70C9866
:1044200000688821C4F20201884258D0FFE70C9846
:104430000068A021C4F20201884250D0FFE70C9826
:104440000068B821C4F20201884248D0FFE70C9806
:10445000006840F21041C4F2020188423FD0FFE7F9
:104460000C98006840F22841C4F20201884236D01C
:10447000FFE70C98006840F24041C4F20201884214
:104480002DD0FFE70C98006840F25841C4F20201B9
:10449000884224D0FFE70C98006840F27041C4F2D3
:1044A000020188421BD0FFE70C98006840F2884167
:1044B000C4F20201884212D0FFE70C98006840F273
:1044C000A041C4F20201884209D0FFE70C980068BD
:1044D00040F2B841C4F20201884209D1FFE70C98CA
:1044E0000068016821F001010A460160049208E0B9
:1044F0000C980068016821F001010A4601600392EE
:10450000FFE7FFE70998006810F0010F1BD0FFE7F5
:1045100003F06EF9DDF820E0A0EB0E00062811D3C1
:10452000FFE70C98202141650C98032180F8351095
:10453000FFE70C98002180F83410FFE701208DF888
:10454000370002E2DEE70C98006801211022C4F275
:1045500002029042029100F0A380FFE70C980068ED
:1045600001212822C4F202029042029100F09880B8
:10457000FFE70C98006801214022C4F20202904239
:10458000029100F08D80FFE70C980068012158220D
:10459000C4F202029042029100F08280FFE70C9880
:1045A000006801217022C4F202029042029177D089
:1045B000FFE70C98006801218822C4F202029042B1
:1045C00002916DD0FFE70C9800680121A022C4F28F
:1045D00002029042029163D0FFE70C98006801212B
:1045E000B822C4F202029042029159D0FFE70C981F
:1045F0000068012140F21042C4F20202904202918E
:104600004ED0FFE70C980068012140F22842C4F226
:1046100002029042029143D0FFE70C98006801210A
:1046200040F24042C4F202029042029138D0FFE7C9
:104630000C980068012140F25842C4F202029042F4
:1046400002912DD0FFE70C980068012140F27042E2
:10465000C4F202029042029122D0FFE70C98006857
:10466000012140F28842C4F202029042029117D026
:10467000FFE70C980068012140F2A042C4F2020258
:10468000904202910CD0FFE70C9800684FF6483139
:10469000CBF6FD710844B0FA80F040090290FFE7C4
:1046A0000298C00700280DD0FFE70C98806D0B9092
:1046B0000C98C06D00F01F003F2101FA00F00B992B
:1046C00088600CE00C98806D0A900C98C06D00F02A
:1046D0001F00012101FA00F00A994860FFE70C98D9
:1046E000006801211022C4F202029042019100F000
:1046F0000381FFE70C98006801212822C4F202021E
:104700009042019100F0F880FFE70C9800680121C9
:104710004022C4F202029042019100F0ED80FFE7D6
:104720000C98006801215822C4F2020290420191C3
:1047300000F0E280FFE70C98006801217022C4F2CB
:1047400002029042019100F0D780FFE70C980068C8
:1047500001218822C4F202029042019100F0CC8033
:10476000FFE70C9800680121A022C4F202029042E7
:10477000019100F0C180FFE70C9800680121B82288
:10478000C4F202029042019100F0B680FFE70C985B
:104790000068012140F21042C4F2020290420191ED
:1047A00000F0AA80FFE70C980068012140F228423F
:1047B000C4F202029042019100F09E80FFE70C9843
:1047C0000068012140F24042C4F20202904201918D
:1047D00000F09280FFE70C980068012140F25842F7
:1047E000C4F202029042019100F08680FFE70C982B
:1047F0000068012140F27042C4F20202904201912D
:104800007AD0FFE70C980068012140F28842C4F298
:104810000202904201916FD0FFE70C9800680121DD
:1048200040F2A042C4F202029042019164D0FFE73C
:104830000C980068012140F2B842C4F20202904292
:10484000019159D0FFE70C980068012145F2084218
:10485000C5F60202904201914ED0FFE70C98006825
:10486000012145F21C42C5F602029042019143D05B
:10487000FFE70C980068012145F23042C5F60202BC
:104880009042019138D0FFE70C980068012145F271
:104890004442C5F60202904201912DD0FFE70C98E8
:1048A0000068012145F25842C5F60202904201918A
:1048B00022D0FFE70C980068012145F26C42C5F652
:1048C00002029042019117D0FFE70C980068012185
:1048D00045F28042C5F60202904201910CD0FFE7FA
:1048E0000C9800684AF66C31CAF2FD710844B0FABF
:1048F00080F040090190FFE70198C007002815D01B
:10490000FFE70C98416E806E48600C98C06E0028DE
:104910000BD0FFE70C98C06E016821F48071016034
:104920000C98016F406F4860FFE7FFE70C9801218A
:1049300080F83510FFE70C98002180F83410FFE76D
:10494000FFE700208DF83700FFE79DF837000EB035
:1049500080BD00000000000080B58AB001460890CC
:1049600008980028069104D1FFE701208DF8270060
:1049700052E3089890F83500022807D0FFE708981E
:104980008021416501208DF8270045E308980068E3
:1049900001211022C4F202029042059100F0A3808E
:1049A000FFE70898006801212822C4F20202904221
:1049B000059100F09880FFE70898006801214022E7
:1049C000C4F202029042059100F08D80FFE7089842
:1049D000006801215822C4F202029042059100F0C1
:1049E0008280FFE70898006801217022C4F2020269
:1049F0009042059177D0FFE708980068012188224E
:104A0000C4F20202904205916DD0FFE70898006859
:104A10000121A022C4F202029042059163D0FFE777
:104A2000089800680121B822C4F202029042059160
:104A300059D0FFE708980068012140F21042C4F203
:104A40000202904205914ED0FFE7089800680121CC
:104A500040F22842C4F202029042059143D0FFE79F
:104A600008980068012140F24042C4F202029042DC
:104A7000059138D0FFE708980068012140F25842BC
:104A8000C4F20202904205912DD0FFE70898006819
:104A9000012140F27042C4F202029042059122D0FC
:104AA000FFE708980068012140F28842C4F2020240
:104AB0009042059117D0FFE708980068012140F265
:104AC000A042C4F20202904205910CD0FFE7089880
:104AD00000684FF64831CBF6FD710844B0FA80F01B
:104AE00040090590FFE70598C007002800F0A18065
:104AF000FFE70898042180F8351008980068102115
:104B0000C4F20201884200F08180FFE70898006843
:104B10002821C4F20201884278D0FFE70898006893
:104B20004021C4F20201884270D0FFE70898006873
:104B30005821C4F20201884268D0FFE70898006853
:104B40007021C4F20201884260D0FFE70898006833
:104B50008821C4F20201884258D0FFE70898006813
:104B6000A021C4F20201884250D0FFE708980068F3
:104B7000B821C4F20201884248D0FFE708980068D3
:104B800040F21041C4F2020188423FD0FFE708988A
:104B9000006840F22841C4F20201884236D0FFE7A3
:104BA0000898006840F24041C4F2020188422DD0CA
:104BB000FFE70898006840F25841C4F202018842B9
:104BC00024D0FFE70898006840F27041C4F2020167
:104BD00088421BD0FFE70898006840F28841C4F281
:104BE0000201884212D0FFE70898006840F2A04115
:104BF000C4F20201884209D0FFE70898006840F239
:104C0000B841C4F20201884209D1FFE70898006860
:104C1000016821F001010A460160049208E0089849
:104C20000068016821F001010A4601600392FFE774
:104C3000EDE108980068016821F00E010160089814
:104C400000681021C4F20201884200F08180FFE771
:104C5000089800682821C4F20201884278D0FFE752
:104C6000089800684021C4F20201884270D0FFE732
:104C7000089800685821C4F20201884268D0FFE712
:104C8000089800687021C4F20201884260D0FFE7F2
:104C9000089800688821C4F20201884258D0FFE7D2
:104CA00008980068A021C4F20201884250D0FFE7B2
:104CB00008980068B821C4F20201884248D0FFE792
:104CC0000898006840F21041C4F2020188423FD0C7
:104CD000FFE70898006840F22841C4F202018842C8
:104CE00036D0FFE70898006840F24041C4F2020164
:104CF00088422DD0FFE70898006840F25841C4F27E
:104D00000201884224D0FFE70898006840F2704111
:104D1000C4F2020188421BD0FFE70898006840F205
:104D20008841C4F20201884212D0FFE70898006867
:104D300040F2A041C4F20201884209D0FFE708987E
:104D4000006840F2B841C4F20201884209D1FFE78D
:104D500008980068016821F001010A46016002928A
:104D600008E008980068016821F001010A46016026
:104D70000192FFE70898006801211022C4F20202A4
:104D80009042009100F00381FFE70898006801213C
:104D90002822C4F202029042009100F0F880FFE75E
:104DA0000898006801214022C4F20202904200915A
:104DB00000F0ED80FFE70898006801215822C4F256
:104DC00002029042009100F0E280FFE7089800683C
:104DD00001217022C4F202029042009100F0D780BB
:104DE000FFE70898006801218822C4F2020290427D
:104DF000009100F0CC80FFE7089800680121A02214
:104E0000C4F202029042009100F0C180FFE70898CE
:104E100000680121B822C4F202029042009100F021
:104E2000B680FFE708980068012140F21042C4F202
:104E300002029042009100F0AA80FFE70898006803
:104E4000012140F22842C4F202029042009100F097
:104E50009E80FFE708980068012140F24042C4F2BA
:104E600002029042009100F09280FFE708980068EB
:104E7000012140F25842C4F202029042009100F037
:104E80008680FFE708980068012140F27042C4F272
:104E90000202904200917AD0FFE708980068012151
:104EA00040F28842C4F20202904200916FD0FFE7C4
:104EB00008980068012140F2A042C4F20202904228
:104EC000009164D0FFE708980068012140F2B842E1
:104ED000C4F202029042009159D0FFE7089800689E
:104EE000012145F20842C5F60202904200914ED0DF
:104EF000FFE708980068012145F21C42C5F602024E
:104F00009042009143D0FFE708980068012145F2E4
:104F10003042C5F602029042009138D0FFE708986F
:104F20000068012145F24442C5F602029042009118
:104F30002DD0FFE708980068012145F25842C5F6D8
:104F400002029042009122D0FFE7089800680121F8
:104F500045F26C42C5F602029042009117D0FFE77D
:104F600008980068012145F28042C5F6020290428D
:104F700000910CD0FFE7089800684AF66C31CAF23D
:104F8000FD710844B0FA80F040090090FFE70098F6
:104F9000C007002827D0FFE70898006E016821F4B9
:104FA000807101600898806D07900898C06D00F0CE
:104FB0001F00012101FA00F0079948600898416E2E
:104FC000806E48600898C06E00280BD0FFE70898F4
:104FD000C06E016821F4807101600898016F406F14
:104FE0004860FFE7FFE70898012180F83510FFE7E8
:104FF0000898002180F83410FFE70898006D002819
:1050000004D0FFE70898016D8847FFE7FFE7FFE757
:1050100000208DF82700FFE79DF827000AB080BD2B
:1050200080B59CB001461B900020179040F20C10F8
:10503000C2F20240006848F2B512C1F64E32A0FB3F
:105040000202920A16921B9A926D15921B9A926D09
:105050001492159A12681A92149A126819921B9A4D
:105060001268012340F2100CC4F2020C6245139145
:105070001290119300F0A380FFE71B9800680121B4
:105080002822C4F202029042119100F09880FFE7BA
:105090001B98006801214022C4F202029042119143
:1050A00000F08D80FFE71B98006801215822C4F2B0
:1050B00002029042119100F08280FFE71B98006885
:1050C00001217022C4F202029042119177D0FFE7D1
:1050D0001B98006801218822C4F2020290421191BB
:1050E0006DD0FFE71B9800680121A022C4F20202E4
:1050F0009042119163D0FFE71B9800680121B8220C
:10510000C4F202029042119159D0FFE71B98006847
:10511000012140F21042C4F20202904211914ED09D
:10512000FFE71B980068012140F22842C4F2020206
:105130009042119143D0FFE71B980068012140F293
:105140004042C4F202029042119138D0FFE71B980E
:105150000068012140F25842C4F2020290421191CB
:105160002DD0FFE71B980068012140F27042C4F285
:1051700002029042119122D0FFE71B9800680121A2
:1051800040F28842C4F202029042119117D0FFE728
:105190001B980068012140F2A042C4F20202904232
:1051A00011910CD0FFE71B9800684FF64831CBF601
:1051B000FD710844B0FA80F040091190FFE71198A2
:1051C000C007002800F03285FFE71A981B99C96DC7
:1051D00001F01F01082202FA01F1084200F0B2803A
:1051E000FFE71B9800681021C4F20201884200F01A
:1051F0008180FFE71B9800682821C4F202018842E1
:1052000078D0FFE71B9800684021C4F20201884271
:1052100070D0FFE71B9800685821C4F20201884251
:1052200068D0FFE71B9800687021C4F20201884231
:1052300060D0FFE71B9800688821C4F20201884211
:1052400058D0FFE71B980068A021C4F202018842F1
:1052500050D0FFE71B980068B821C4F202018842D1
:1052600048D0FFE71B98006840F21041C4F20201E9
:1052700088423FD0FFE71B98006840F22841C4F203
:105280000201884236D0FFE71B98006840F2404197
:10529000C4F2020188422DD0FFE71B98006840F25B
:1052A0005841C4F20201884224D0FFE71B980068ED
:1052B00040F27041C4F2020188421BD0FFE71B9804
:1052C000006840F28841C4F20201884212D0FFE730
:1052D0001B98006840F2A041C4F20201884209D044
:1052E000FFE71B98006840F2B841C4F2020188420F
:1052F00007D1FFE71B980068006800F004001090D9
:1053000006E01B980068006800F008001090FFE7B6
:105310001098002815D0FFE71B980068016821F05D
:10532000040101601B98C06D00F01F00082101FA04
:1053300000F0159988601B98416D41F001014165AD
:10534000FFE7FFE71A981B99C96D01F01F010122C1
:1053500002FA01F1084200F0AC80FFE71B980068F8
:105360001021C4F20201884200F08180FFE71B98FF
:1053700000682821C4F20201884278D0FFE71B9818
:1053800000684021C4F20201884270D0FFE71B98F8
:1053900000685821C4F20201884268D0FFE71B98D8
:1053A00000687021C4F20201884260D0FFE71B98B8
:1053B00000688821C4F20201884258D0FFE71B9898
:1053C0000068A021C4F20201884250D0FFE71B9878
:1053D0000068B821C4F20201884248D0FFE71B9858
:1053E000006840F21041C4F2020188423FD0FFE75A
:1053F0001B98006840F22841C4F20201884236D06E
:10540000FFE71B98006840F24041C4F20201884265
:105410002DD0FFE71B98006840F25841C4F202010A
:10542000884224D0FFE71B98006840F27041C4F224
:10543000020188421BD0FFE71B98006840F28841B8
:10544000C4F20201884212D0FFE71B98006840F2C4
:10545000A041C4F20201884209D0FFE71B9800680E
:1054600040F2B841C4F20201884207D1FFE71B981D
:105470000068406900F080000F9006E01B9800680B
:10548000006800210E900F91FFE70F9800280FD0C1
:10549000FFE71B98C06D00F01F00012101FA00F02A
:1054A000159988601B98416D41F002014165FFE745
:1054B000FFE71A981B99C96D01F01F01042202FA37
:1054C00001F1084200F0AC80FFE71B980068102152
:1054D000C4F20201884200F08180FFE71B98006857
:1054E0002821C4F20201884278D0FFE71B980068A7
:1054F0004021C4F20201884270D0FFE71B98006887
:105500005821C4F20201884268D0FFE71B98006866
:105510007021C4F20201884260D0FFE71B98006846
:105520008821C4F20201884258D0FFE71B98006826
:10553000A021C4F20201884250D0FFE71B98006806
:10554000B821C4F20201884248D0FFE71B980068E6
:1055500040F21041C4F2020188423FD0FFE71B989D
:10556000006840F22841C4F20201884236D0FFE7C9
:105570001B98006840F24041C4F2020188422DD0DD
:10558000FFE71B98006840F25841C4F202018842CC
:1055900024D0FFE71B98006840F27041C4F202017A
:1055A00088421BD0FFE71B98006840F28841C4F294
:1055B0000201884212D0FFE71B98006840F2A04128
:1055C000C4F20201884209D0FFE71B98006840F24C
:1055D000B841C4F20201884207D1FFE71B98006876
:1055E000006800F002000D9006E01B98006800685B
:1055F00000210C900D91FFE70D9800280FD0FFE7D8
:105600001B98C06D00F01F00042101FA00F01599ED
:1056100088601B98416D41F004014165FFE7FFE799
:105620001A981B99C96D01F01F01102202FA01F1AD
:10563000084200F0E280FFE71B9800681021C4F2E6
:105640000201884200F08180FFE71B980068282152
:10565000C4F20201884278D0FFE71B98006840211D
:10566000C4F20201884270D0FFE71B9800685821FD
:10567000C4F20201884268D0FFE71B9800687021DD
:10568000C4F20201884260D0FFE71B9800688821BD
:10569000C4F20201884258D0FFE71B980068A0219D
:1056A000C4F20201884250D0FFE71B980068B8217D
:1056B000C4F20201884248D0FFE71B98006840F21C
:1056C0001041C4F2020188423FD0FFE71B980068F6
:1056D00040F22841C4F20201884236D0FFE71B980D
:1056E000006840F24041C4F2020188422DD0FFE739
:1056F0001B98006840F25841C4F20201884224D04D
:10570000FFE71B98006840F27041C4F20201884232
:105710001BD0FFE71B98006840F28841C4F20201E9
:10572000884212D0FFE71B98006840F2A041C4F203
:105730000201884209D0FFE71B98006840F2B84197
:10574000C4F20201884207D1FFE71B980068006895
:1057500000F008000B9006E01B980068006800F05D
:1057600004000B90FFE70B98002845D0FFE71B983B
:10577000C06D00F01F00102101FA00F0159988603B
:105780001B980068006810F4802F1CD0FFE71B985E
:105790000068006810F4002F0AD1FFE71B98006C26
:1057A000002804D0FFE71B98016C8847FFE709E059
:1057B0001B98806C002804D0FFE71B98816C8847F9
:1057C000FFE7FFE717E01B980068006810F4807F90
:1057D00007D1FFE71B980068016821F0080101600C
:1057E000FFE71B98006C002804D0FFE71B98016CB2
:1057F0008847FFE7FFE7FFE7FFE71A981B99C96DA6
:1058000001F01F01202202FA01F1084200F02E816E
:10581000FFE71B9800681021C4F20201884200F0E3
:105820008180FFE71B9800682821C4F202018842AA
:1058300078D0FFE71B9800684021C4F2020188423B
:1058400070D0FFE71B9800685821C4F2020188421B
:1058500068D0FFE71B9800687021C4F202018842FB
:1058600060D0FFE71B9800688821C4F202018842DB
:1058700058D0FFE71B980068A021C4F202018842BB
:1058800050D0FFE71B980068B821C4F2020188429B
:1058900048D0FFE71B98006840F21041C4F20201B3
:1058A00088423FD0FFE71B98006840F22841C4F2CD
:1058B0000201884236D0FFE71B98006840F2404161
:1058C000C4F2020188422DD0FFE71B98006840F225
:1058D0005841C4F20201884224D0FFE71B980068B7
:1058E00040F27041C4F2020188421BD0FFE71B98CE
:1058F000006840F28841C4F20201884212D0FFE7FA
:105900001B98006840F2A041C4F20201884209D00D
:10591000FFE71B98006840F2B841C4F202018842D8
:1059200007D1FFE71B980068006800F010000A909C
:1059300006E01B980068006800F002000A90FFE78C
:105940000A98002800F09180FFE71B98C06D00F0D6
:105950001F00202101FA00F0159988601B9890F82B
:10596000350004283BD1FFE71B980068016821F04F
:10597000160101601B980068416921F080014161B6
:105980001B98006C002805D1FFE71B98806C00284D
:1059900007D0FFE71B980068016821F0080101604B
:1059A000FFE71B98C06D00F01F003F2101FA00F0D7
:1059B000159988601B98012180F83510FFE71B9826
:1059C000002180F83410FFE71B98006D002804D0F8
:1059D000FFE71B98016D8847FFE700F03CBC1B9870
:1059E0000068006810F4802F1CD0FFE71B98006847
:1059F000006810F4002F0AD1FFE71B98406C0028C4
:105A000004D0FFE71B98416C8847FFE709E01B982B
:105A1000C06B002804D0FFE71B98C16B8847FFE7E5
:105A2000FFE721E01B980068006810F4807F11D127
:105A3000FFE71B980068016821F0100101601B98C6
:105A4000012180F83510FFE71B98002180F8341001
:105A5000FFE7FFE71B98C06B002804D0FFE71B9807
:105A6000C16B8847FFE7FFE7FFE7FFE71B98406D43
:105A7000002800F0DA80FFE71B98406D10F0010F5E
:105A800000F0C980FFE71B98042180F835101B98AF
:105A900000681021C4F20201884200F08180FFE713
:105AA0001B9800682821C4F20201884278D0FFE7E1
:105AB0001B9800684021C4F20201884270D0FFE7C1
:105AC0001B9800685821C4F20201884268D0FFE7A1
:105AD0001B9800687021C4F20201884260D0FFE781
